:020000040800F2
:1080000000000820BDFF00086DFD00087BFD000892
:1080100081FD000887FD00088DFD000800000000BC
:10802000000000000000000000000000D1810108F5
:1080300093FD000800000000E1830108A1FD000895
:108040000D0001080D0001080D0001080D000108D8
:108050000D0001080D0001080D0001080D000108C8
:108060000D000108BBFD00080D0001080D0001080E
:108070000D0001080D0001080D0001080D000108A8
:108080000D0001080D0001080D0001080D00010898
:108090000D0001080D0001080D0001080D00010888
:1080A0000D0001080D0001080D0001080D00010878
:1080B0000D0001080D0001080D0001080D00010868
:1080C0000D0001080D0001080D0001080D00010858
:1080D0000D0001080D0001080D0001080D00010848
:1080E0000D0001080D0001080D0001080D00010838
:1080F0000D0001080D0001080D0001080D00010828
:108100000D0001080D0001080D0001080D00010817
:108110000D0001080D0001080D0001080D00010807
:10812000C9FD00080D0001080D000108DDFD000873
:108130000D0001080D0001080D0001080D000108E7
:108140000D0001080D0001080D0001080D000108D7
:108150000D000108F1FD00080D00010805FE0008F2
:108160000D0001080D0001080D0001080D000108B7
:108170000D0001080D0001080D00010800000000BD
:108180000D0001080D0001080D0001080D00010897
:108190000D0001080D0001080D0001080D00010887
:1081A0000D0001080D0001080D0001080D00010877
:1081B0000D0001080D0001080D0001080D00010867
:1081C0000D0001080D000108000000000D0001086D
:1081D0000D0001080D0001080D0001080D00010847
:1081E0000D0001080D0001080D0001080D00010837
:0881F0000D0001080D0001085B
:1082000010B5054C237833B9044B13B10448AFF3D0
:1082100000800123237010BD000200200000000038
:1082200018D7010808B5034B1BB103490348AFF346
:10823000008008BD000000000402002018D70108DB
:108240004B1C012B98BF70472DE9F003911C9B0834
:10825000B1F80480B1F802900A8831F802CC804469
:10826000814402448444D9F80070D8F8006015684D
:10827000DCF80040C9F80060C8F80070CCF8005085
:108280001460D9F80470D8F804605568DCF804402C
:10829000C9F80460C8F80470CCF804505460083180
:1082A000013BD5D1BDE8F00370474B1C012B98BFB3
:1082B00070472DE9F003911C9B08B1F80480B1F8D8
:1082C00002900A8831F802CC00EB580800EB5909FB
:1082D00000EB520200EB5C0CD9F80070D8F800609B
:1082E0001568DCF80040C9F80060C8F80070CCF8E8
:1082F000005014600831013BDFD1BDE8F003704746
:10830000034613F8012B002AFBD1181A01387047D5
:1083100001F0FF01102A2BDB10F0070F08D010F836
:10832000013B013A8B422DD010F0070F42B3F6D13A
:10833000F0B441EA012141EA014122F007047FF053
:1083400000070023F0E80256083C85EA010586EAAA
:10835000010685FA47F5A3FA87F586FA47F6A5FAE6
:1083600087F68EB9EED1F0BC01F0FF0102F00702F2
:1083700032B110F8013B013A83EA010313B1F8D19D
:108380000020704701387047002D06BF354603387E
:10839000073815F0010F07D1013015F4807F02BFB7
:1083A000013015F4C03F0130F0BC0138704700BF08
:1083B00081F0004102E000BF83F0004330B54FEA96
:1083C00041044FEA430594EA050F08BF90EA020F03
:1083D0001FBF54EA000C55EA020C7FEA645C7FEA96
:1083E000655C00F0E2804FEA5454D4EB5555B8BFB9
:1083F0006D420CDD2C4480EA020281EA030382EA2A
:10840000000083EA010180EA020281EA0303362DBB
:1084100088BF30BD11F0004F4FEA01314FF4801C8E
:108420004CEA113102D0404261EB410113F0004FA0
:108430004FEA03334CEA133302D0524263EB430357
:1084400094EA050F00F0A780A4F10104D5F1200EF5
:108450000DDB02FA0EFC22FA05F2801841F1000150
:1084600003FA0EF2801843FA05F359410EE0A5F124
:1084700020050EF1200E012A03FA0EFC28BF4CF055
:10848000020C43FA05F3C01851EBE37101F000450B
:1084900007D54FF0000EDCF1000C7EEB00006EEB18
:1084A0000101B1F5801F1BD3B1F5001F0CD34908A2
:1084B0005FEA30004FEA3C0C04F101044FEA4452F9
:1084C00012F5800F80F09A80BCF1004F08BF5FEA80
:1084D000500C50F1000041EB045141EA050130BD60
:1084E0005FEA4C0C404141EB0101013C28BFB1F572
:1084F000801FE9D291F0000F04BF01460020B1FABD
:1085000081F308BF2033A3F10B03B3F120020CDA8F
:108510000C3208DD02F1140CC2F10C0201FA0CF06D
:1085200021FA02F10CE002F11402D8BFC2F1200CD2
:1085300001FA02F120FA0CFCDCBF41EA0C01904088
:10854000E41AA2BF01EB0451294330BD6FEA0404D1
:108550001F3C1CDA0C340EDC04F11404C4F12002BC
:1085600020FA04F001FA02F340EA030021FA04F3CE
:1085700045EA030130BDC4F10C04C4F1200220FA25
:1085800002F001FA04F340EA0300294630BD21FA63
:1085900004F0294630BD94F0000F83F4801306BF29
:1085A00081F480110134013D4EE77FEA645C18BF1D
:1085B0007FEA655C29D094EA050F08BF90EA020FB4
:1085C00005D054EA000C04BF1946104630BD91EAAC
:1085D000030F1EBF0021002030BD5FEA545C05D1AF
:1085E0004000494128BF41F0004130BD14F58004EE
:1085F0003CBF01F5801130BD01F0004545F0FE4162
:1086000041F470014FF0000030BD7FEA645C1ABF96
:10861000194610467FEA655C1CBF0B46024650EACD
:10862000013406BF52EA033591EA030F41F40021F9
:1086300030BD00BF90F0000F04BF0021704730B57F
:108640004FF4806404F132044FF000054FF0000154
:1086500050E700BF90F0000F04BF0021704730B515
:108660004FF4806404F1320410F0004548BF4042EA
:108670004FF000013EE700BF42004FEAE2014FEA3F
:1086800031014FEA02701FBF12F07F4393F07F4F1A
:1086900081F06051704732F07F4208BF704793F01D
:1086A0007F4F04BF41F40021704730B54FF4607430
:1086B00001F0004521F000411CE700BF50EA010233
:1086C00008BF704730B54FF000050AE050EA0102DC
:1086D00008BF704730B511F0004502D5404261EB4C
:1086E00041014FF4806404F132045FEA915C3FF48D
:1086F000D8AE4FF003025FEADC0C18BF03325FEA2A
:10870000DC0C18BF033202EBDC02C2F1200300FADA
:1087100003FC20FA02F001FA03FE40EA0E0021FAFF
:1087200002F11444BDE600BF53B94AB9002908BF9D
:1087300000281CBF4FF0FF314FF0FF3000F0ACB904
:10874000ADF1080C6DE904CE00F03EF8DDF804E070
:10875000DDE9022304B0704708B502460B4643EC3E
:10876000172BB5EEC07BF1EE10FA03D4BDE808403C
:1087700000F00AB8B1EE477B51EC170B00F004F89B
:10878000404261EB410108BD9FED0B6B41EC170BC3
:108790009FED0B5B27EE066BBCEEC66BB8EE464B4F
:1087A000A4EE457BFCEEC77B16EE101A17EE900A7E
:1087B000704700BFAFF30080000000000000F03DF4
:1087C000000000000000F0412DE9F047089D04463C
:1087D0008E46002B4DD18A42944669D9B2FA82F274
:1087E00052B101FA02F3C2F1200120FA01F10CFAB0
:1087F00002FC41EA030E94404FEA1C48210CBEFBE8
:10880000F8F61FFA8CF708FB16E341EA034306FB70
:1088100007F199420AD91CEB030306F1FF3080F0FF
:108820001F81994240F21C81023E63445B1AA4B24C
:10883000B3FBF8F008FB103344EA034400FB07F7EE
:10884000A7420AD91CEB040400F1FF3380F00A812F
:10885000A74240F207816444023840EA0640E41B24
:1088600000261DB1D4400023C5E900433146BDE8D0
:10887000F0878B4209D9002D00F0EF800026C5E972
:10888000000130463146BDE8F087B3FA83F6002E8A
:108890004AD18B4202D3824200F2F980841A61EB02
:1088A000030301209E46002DE0D0C5E9004EDDE720
:1088B00002B9FFDEB2FA82F2002A40F09280A1EB08
:1088C0000C014FEA1C471FFA8CFE0126200CB1FB5D
:1088D000F7F307FB131140EA01410EFB03F0884256
:1088E00008D91CEB010103F1FF3802D2884200F2E3
:1088F000CB804346091AA4B2B1FBF7F007FB101175
:1089000044EA01440EFB00FEA64508D91CEB040412
:1089100000F1FF3102D2A64500F2BB800846A4EB6D
:108920000E0440EA03409CE7C6F12007B34022FA58
:1089300007FC4CEA030C20FA07F401FA06F31C4387
:10894000F9404FEA1C4900FA06F3B1FBF9F8200C94
:108950001FFA8CFE09FB181140EA014108FB0EF0DA
:10896000884202FA06F20BD91CEB010108F1FF3A2A
:1089700080F08880884240F28580A8F10208614436
:10898000091AA4B2B1FBF9F009FB101144EA014144
:1089900000FB0EFE8E4508D91CEB010100F1FF34EF
:1089A0006CD28E456AD90238614440EA0840A0FB87
:1089B0000294A1EB0E01A142C846A64656D353D05D
:1089C0005DB1B3EB080261EB0E0101FA07F722FA81
:1089D00006F3F1401F43C5E9007100263146BDE8AA
:1089E000F087C2F12003D8400CFA02FC21FA03F30D
:1089F000914001434FEA1C471FFA8CFEB3FBF7F08E
:108A000007FB10360B0C43EA064300FB0EF69E42B2
:108A100004FA02F408D91CEB030300F1FF382FD24B
:108A20009E422DD9023863449B1B89B2B3FBF7F6F3
:108A300007FB163341EA034106FB0EF38B4208D9CC
:108A40001CEB010106F1FF3816D28B4214D9023E0D
:108A50006144C91A46EA004638E72E46284605E72B
:108A60000646E3E61846F8E64B45A9D2B9EB0208FC
:108A700064EB0C0E0138A3E74646EAE7204694E78C
:108A80004046D1E7D0467BE7023B614432E73046BF
:108A900009E76444023842E7704700BF80B582B0FE
:108AA00000AF87ED010A3860D7ED017AF5EEC07AA4
:108AB000F1EE10FA0ADB97ED010A14F099FDF0EEE1
:108AC000407A3B68C3ED007A002305E03B684FF035
:108AD00000021A604FF0FF3318460837BD4680BDCC
:108AE00080B588B000AFF860B9607A607B689B0899
:108AF000FB6172E0FB681A1DFA601B68BB61FB68D2
:108B00001A1DFA601B687B61D7ED067A27EEA77AFB
:108B1000D7ED057A67EEA77A77EE277ABB681A1D3C
:108B2000BA601846B0EE670AFFF7B8FFFB681A1D77
:108B3000FA601B68BB61FB681A1DFA601B687B61E9
:108B4000D7ED067A27EEA77AD7ED057A67EEA77AF2
:108B500077EE277ABB681A1DBA601846B0EE670A2E
:108B6000FFF79CFFFB681A1DFA601B68BB61FB687E
:108B70001A1DFA601B687B61D7ED067A27EEA77A8B
:108B8000D7ED057A67EEA77A77EE277ABB681A1DCC
:108B9000BA601846B0EE670AFFF780FFFB681A1D3F
:108BA000FA601B68BB61FB681A1DFA601B687B6179
:108BB000D7ED067A27EEA77AD7ED057A67EEA77A82
:108BC00077EE277ABB681A1DBA601846B0EE670ABE
:108BD000FFF764FFFB69013BFB61FB69002B89D157
:108BE0007B6803F00303FB611EE0FB681A1DFA605B
:108BF0001B68BB61FB681A1DFA601B687B61D7EDBF
:108C0000067A27EEA77AD7ED057A67EEA77A77EE90
:108C1000277ABB681A1DBA601846B0EE670AFFF7DC
:108C20003DFFFB69013BFB61FB69002BDDD100BF10
:108C300000BF2037BD4680BD80B48BB000AFF86068
:108C4000B9607A603B600023BB610023FB61FB6875
:108C50001A1DFA601B687B62BB68013B9B083B6284
:108C600051E0FB681A1DFA601B687B61FB681A1DE6
:108C7000FA601B683B6197ED097AD7ED057AB4EE8F
:108C8000E77AF1EE10FA04D57B697B62BB690133A8
:108C9000FB61FB681A1DFA601B687B6197ED097A1E
:108CA000D7ED047AB4EEE77AF1EE10FA04D53B6919
:108CB0007B62BB690233FB61FB681A1DFA601B68AB
:108CC0003B6197ED097AD7ED057AB4EEE77AF1EEDC
:108CD00010FA04D57B697B62BB690333FB6197EDB6
:108CE000097AD7ED047AB4EEE77AF1EE10FA04D5FA
:108CF0003B697B62BB690433FB61BB690433BB61C5
:108D00003B6A013B3B623B6A002BAAD1BB68013B3B
:108D100003F003033B6216E0FB681A1DFA601B6850
:108D20007B6197ED097AD7ED057AB4EEE77AF1EE3B
:108D300010FA05D57B697B62BA683B6AD31AFB617E
:108D40003B6A013B3B623B6A002BE5D17B687A6A58
:108D50001A603B68FA691A6000BF2C37BD465DF89F
:108D6000047B704780B48BB000AFF860B9607A6064
:108D70004FF000037B62BB689B083B6236E0FB68F8
:108D80001A1DFA601B68FB61FB681A1DFA601B68FC
:108D9000BB61FB681A1DFA601B687B61FB681A1DCA
:108DA000FA601B683B6197ED097AD7ED077A77EE99
:108DB000277AC7ED097A97ED097AD7ED067A77EE2B
:108DC000277AC7ED097A97ED097AD7ED057A77EE1C
:108DD000277AC7ED097A97ED097AD7ED047A77EE0D
:108DE000277AC7ED097A3B6A013B3B623B6A002B5D
:108DF000C5D1BB6803F003033B620DE0FB681A1D9D
:108E0000FA60D3ED007A97ED097A77EE277AC7ED0D
:108E1000097A3B6A013B3B623B6A002BEED1BB689F
:108E200007EE903AB8EE677AD7ED096AC6EE877A10
:108E30007B68C3ED007A00BF2C37BD465DF8047B2C
:108E4000704780B48BB000AFF860B9607A603B6067
:108E50000023BB610023FB61FB681A1DFA601B68DD
:108E60007B62BB68013B9B083B6251E0FB681A1DBB
:108E7000FA601B687B61FB681A1DFA601B683B6126
:108E800097ED097AD7ED057AB4EEE77AF1EE10FAAC
:108E900004DD7B697B62BB690133FB61FB681A1DE2
:108EA000FA601B687B6197ED097AD7ED047AB4EE1E
:108EB000E77AF1EE10FA04DD3B697B62BB690233AD
:108EC000FB61FB681A1DFA601B683B6197ED097A2C
:108ED000D7ED057AB4EEE77AF1EE10FA04DD7B699E
:108EE0007B62BB690333FB6197ED097AD7ED047AA6
:108EF000B4EEE77AF1EE10FA04DD3B697B62BB6900
:108F00000433FB61BB690433BB613B6A013B3B62D9
:108F10003B6A002BAAD1BB68013B03F003033B6211
:108F200016E0FB681A1DFA601B687B6197ED097AF1
:108F3000D7ED057AB4EEE77AF1EE10FA05DD7B693C
:108F40007B62BA683B6AD31AFB613B6A013B3B62B6
:108F50003B6A002BE5D17B687A6A1A603B68FA6944
:108F60001A6000BF2C37BD465DF8047B704780B5A2
:108F700082B000AF87ED010A3860D7ED017AF5EED7
:108F8000C07AF1EE10FA0ADB97ED010A14F030FB1B
:108F9000F0EE407A3B68C3ED007A002305E03B68C1
:108FA0004FF000021A604FF0FF3318460837BD46F5
:108FB00080BD80B588B000AFF860B9607A604FF0CE
:108FC0000003FB61BB689B08BB613EE0FB681A1DA8
:108FD000FA601B687B61D7ED057A67EEA77A97ED9B
:108FE000077A77EE277AC7ED077AFB681A1DFA60D1
:108FF0001B687B61D7ED057A67EEA77A97ED077A54
:1090000077EE277AC7ED077AFB681A1DFA601B68AE
:109010007B61D7ED057A67EEA77A97ED077A77EE51
:10902000277AC7ED077AFB681A1DFA601B687B6117
:10903000D7ED057A67EEA77A97ED077A77EE277A6C
:10904000C7ED077ABB69013BBB61BB69002BBDD192
:10905000BB6803F00303BB6111E0FB681A1DFA60F3
:109060001B687B61D7ED057A67EEA77A97ED077AE3
:1090700077EE277AC7ED077ABB69013BBB61BB6915
:10908000002BEAD1BB6807EE903AF8EE677A97EDCD
:10909000077AC7EE276A7868B0EE660AFFF767FFBF
:1090A00000BF2037BD4680BD80B582B000AF87EDE0
:1090B000010A3860D7ED017AF5EEC07AF1EE10FAC8
:1090C0000ADB97ED010A14F093FAF0EE407A3B6860
:1090D000C3ED007A002305E03B684FF000021A6000
:1090E0004FF0FF3318460837BD4680BD80B58CB0C1
:1090F00000AFF860B9607A604FF00003FB624FF098
:109100000003BB62BB68012B04D17B684FF00002F7
:109110001A60C4E0BB689B087B625EE0FB681A1DB6
:10912000FA601B687B6197ED0B7AD7ED057A77EED5
:10913000277AC7ED0B7AD7ED057A67EEA77A97ED18
:109140000A7A77EE277AC7ED0A7AFB681A1DFA6069
:109150001B687B6197ED0B7AD7ED057A77EE277A5E
:10916000C7ED0B7AD7ED057A67EEA77A97ED0A7A05
:1091700077EE277AC7ED0A7AFB681A1DFA601B683A
:109180007B6197ED0B7AD7ED057A77EE277AC7EDFD
:109190000B7AD7ED057A67EEA77A97ED0A7A77EE24
:1091A000277AC7ED0A7AFB681A1DFA601B687B6193
:1091B00097ED0B7AD7ED057A77EE277AC7ED0B7A24
:1091C000D7ED057A67EEA77A97ED0A7A77EE277AD8
:1091D000C7ED0A7A7B6A013B7B627B6A002B9DD1DB
:1091E000BB6803F003037B6219E0FB681A1DFA6099
:1091F0001B687B6197ED0B7AD7ED057A77EE277ABE
:10920000C7ED0B7AD7ED057A67EEA77A97ED0A7A64
:1092100077EE277AC7ED0A7A7B6A013B7B627B6A2D
:10922000002BE2D1BB6807EE903AF8EE677AB7EE12
:10923000007A37EEC77AD7ED0A6AC6EE877AC7EDAD
:10924000087ABB6807EE903AB8EE677AD7ED0B6AFA
:10925000C6EE877AC7ED077AD7ED077A27EEA77AA9
:10926000BB6807EE903AB8EE676ABB6807EE903AC3
:10927000F8EE677AF7EE006A77EEE66AC6EE267ACF
:1092800067EE277AC7ED067A97ED087AD7ED067A6A
:1092900077EE677A7868B0EE670AFFF705FF303738
:1092A000BD4680BD80B48DB000AFF860B9607A6013
:1092B0004FF00003FB624FF00003BB62BB68012B61
:1092C00004D17B684FF000021A60C2E0BB689B08C3
:1092D0007B625EE0FB681A1DFA601B687B6197ED9C
:1092E0000B7AD7ED057A77EE277AC7ED0B7AD7EDB3
:1092F000057A67EEA77A97ED0A7A77EE277AC7EDB7
:109300000A7AFB681A1DFA601B687B6197ED0B7A7D
:10931000D7ED057A77EE277AC7ED0B7AD7ED057A88
:1093200067EEA77A97ED0A7A77EE277AC7ED0A7A81
:10933000FB681A1DFA601B687B6197ED0B7AD7ED0D
:10934000057A77EE277AC7ED0B7AD7ED057A67EEC7
:10935000A77A97ED0A7A77EE277AC7ED0A7AFB6843
:109360001A1DFA601B687B6197ED0B7AD7ED057AC1
:1093700077EE277AC7ED0B7AD7ED057A67EEA77AF5
:1093800097ED0A7A77EE277AC7ED0A7A7B6A013B76
:109390007B627B6A002B9DD1BB6803F003037B6279
:1093A00019E0FB681A1DFA601B687B6197ED0B7A68
:1093B000D7ED057A77EE277AC7ED0B7AD7ED057AE8
:1093C00067EEA77A97ED0A7A77EE277AC7ED0A7AE1
:1093D0007B6A013B7B627B6A002BE2D1BB6807EEB4
:1093E000903AF8EE677AB7EE007A37EEC77AD7EDA3
:1093F0000A6AC6EE877AC7ED087ABB6807EE903A2C
:10940000B8EE677AD7ED0B6AC6EE877AC7ED077AB2
:10941000D7ED077A27EEA77ABB6807EE903AB8EE49
:10942000676ABB6807EE903AF8EE677AF7EE006A73
:1094300077EEE66AC6EE267A67EE277AC7ED067AF9
:1094400097ED087AD7ED067A77EE677A7B68C3EDF9
:10945000007A3437BD465DF8047B704780B5A0B014
:1094600000AF786039607B681B88BB66BB6E9B0071
:109470003A6813447B677B685B683B673B687B6645
:109480007B6F3B66BB6E5B08BB66BB6E9B003A683E
:109490001344FB67BB6E9B007A6F1344BB67BB6EC4
:1094A0009B08FB66B6E13B681B68BB633B685B6877
:1094B000FB633B689B683B643B68DB687B647B6F5A
:1094C0001B68BB627B6F5B68FB627B6F9B683B6367
:1094D0007B6FDB687B63FB6F1B68BB61FB6F5B684B
:1094E000FB61FB6F9B683B62FB6FDB687B62BB6F62
:1094F0001B68BB60BB6F5B68FB60BB6F9B683B61BD
:10950000BB6FDB687B6197ED0E7AD7ED0A7A3B681B
:109510001A1D3A6077EE277AC3ED007A97ED0F7A3D
:10952000D7ED0B7A3B681A1D3A6077EE277AC3EDC8
:10953000007A97ED107AD7ED0C7A3B681A1D3A60E5
:1095400077EE277AC3ED007A97ED117AD7ED0D7A91
:109550003B681A1D3A6077EE277AC3ED007A97EDE3
:109560000E7AD7ED0A7A77EE677AC7ED0A7A97ED29
:109570000F7AD7ED0B7A77EE677AC7ED0B7A97ED16
:10958000107AD7ED0C7A77EE677AC7ED0C7A97ED03
:10959000117AD7ED0D7A77EE677AC7ED0D7A97EDF0
:1095A000067AD7ED027AFB6F1A1DFA6777EE277AF3
:1095B000C3ED007A97ED077AD7ED037AFB6F1A1D9A
:1095C000FA6777EE277AC3ED007A97ED087AD7ED40
:1095D000047AFB6F1A1DFA6777EE277AC3ED007ADB
:1095E00097ED097AD7ED057AFB6F1A1DFA6777EECA
:1095F000277AC3ED007A97ED027AD7ED067A77EEF7
:10960000677AC7ED027A97ED037AD7ED077A77EE9E
:10961000677AC7ED037A97ED047AD7ED087A77EE8B
:10962000677AC7ED047A97ED057AD7ED097A77EE78
:10963000677AC7ED057A3B6F1A1D3A671B68FB65B1
:109640003B6F1A1D3A671B68BB65D7ED0A7A97ED29
:10965000177A67EE277AC7ED157AD7ED0B7A97ED73
:10966000167A67EE277AC7ED147AD7ED0B7A97ED65
:10967000177A67EE277AC7ED137AD7ED0A7A97ED56
:10968000167A67EE277AC7ED127A7B6F1A1D7A6712
:1096900097ED157AD7ED147A77EE277AC3ED007A35
:1096A0007B6F1A1D7A6797ED137AD7ED127A77EEF2
:1096B000677AC3ED007AD7ED027A97ED167A67EEF6
:1096C000277AC7ED157AD7ED037A97ED177A67EE0B
:1096D000277AC7ED147AD7ED037A97ED167A67EEFD
:1096E000277AC7ED137AD7ED027A97ED177A67EEEE
:1096F000277AC7ED127ABB6F1A1DBA6797ED157AF4
:10970000D7ED147A77EE677AC3ED007ABB6F1A1D36
:10971000BA6797ED137AD7ED127A77EE277AC3ED11
:10972000007A3B6F1A1D3A671B68FB653B6F1A1D79
:109730003A671B68BB65D7ED0C7A97ED177A67EE31
:10974000277AC7ED157AD7ED0D7A97ED167A67EE81
:10975000277AC7ED147AD7ED0D7A97ED177A67EE71
:10976000277AC7ED137AD7ED0C7A97ED167A67EE64
:10977000277AC7ED127A7B6F1A1D7A6797ED157AF3
:10978000D7ED147A77EE277AC3ED007A7B6F1A1D36
:109790007A6797ED137AD7ED127A77EE677AC3ED91
:1097A000007AD7ED047A97ED167A67EE277AC7ED3F
:1097B000157AD7ED057A97ED177A67EE277AC7ED18
:1097C000147AD7ED057A97ED167A67EE277AC7ED0A
:1097D000137AD7ED047A97ED177A67EE277AC7EDFB
:1097E000127ABB6F1A1DBA6797ED157AD7ED147A06
:1097F00077EE677AC3ED007ABB6F1A1DBA6797EDF3
:10980000137AD7ED127A77EE277AC3ED007AFB6EE2
:10981000013BFB66FB6E002B7FF445AEBB6E99B23D
:109820007B685A680223786E00F0F2FEBB6E99B234
:109830007B685A680223386E00F0EAFE00BF80376A
:10984000BD4680BD80B5ACB000AF786039607B6844
:109850001B885B089BB2C7F88030D7F880309B002C
:109860003A681344C7F89030D7F880309B00D7F897
:1098700090201344C7F88C30D7F880309B00D7F87D
:109880008C201344C7F888303B68FB67D7F89030CA
:10989000BB67D7F88C307B67D7F888303B67D7F841
:1098A0009030043BC7F8AC30D7F88C30043BC7F895
:1098B000A830D7F88830043BC7F8A430D7F88030F8
:1098C0009B00D7F8A4201344C7F8A0307B685B68DE
:1098D000C7F89430D7F89430C7F89830D7F8983054
:1098E000C7F89C30D7F880305B08C7F88030022377
:1098F000FB660423BB6606237B663B6893ED007A18
:10990000D7F88C30D3ED007A77EE277AC7ED187A46
:109910003B6893ED007AD7F88C30D3ED007A77EE80
:10992000677AC7ED177A3B68043393ED007AD7F86E
:109930008C300433D3ED007A77EE277AC7ED167AB0
:109940003B68043393ED007AD7F88C300433D3EDC1
:10995000007A77EE677AC7ED157AD7F8903004333E
:1099600093ED007AD7ED177A37EE277AD7F888305B
:109970000433D3ED007A77EE677AC7ED0B7AD7F828
:109980009030D3ED007A97ED157A37EE677AD7F8F5
:109990008830D3ED007A77EE277AC7ED0C7AD7F8C6
:1099A0009030D3ED007A97ED187A37EE677AD7F8D2
:1099B0008830D3ED007A77EE677AC7ED077AD7F86B
:1099C00090300433D3ED007A97ED167A37EE677A4C
:1099D000D7F888300433D3ED007A77EE677AC7ED95
:1099E000087AD7F890300433D3ED007A97ED177AE0
:1099F00037EE677AD7F888300433D3ED007A77EE04
:109A0000277AC7ED037AD7F8903093ED007AD7ED37
:109A1000157A37EE277AD7F88830D3ED007A77EECB
:109A2000677AC7ED047AD7F8903093ED007AD7EDD6
:109A3000187A37EE277AD7F88830D3ED007A3B686A
:109A40001A1D3A6077EE277AC3ED007AD7F8903086
:109A5000043393ED007AD7ED167A37EE277AD7F8EC
:109A600088300433D3ED007A3B681A1D3A6077EEF4
:109A7000277AC3ED007AD7F890301A1DC7F89020E6
:109A8000FA6A1A60D7F890301A1DC7F890203A6B1E
:109A90001A60D7F88C301A1DC7F88C20FA691A6042
:109AA000D7F88C301A1DC7F88C203A6A1A60D7F89C
:109AB00088301A1DC7F88820FA681A60D7F88830ED
:109AC0001A1DC7F888203A691A60FB6E9B00D7F808
:109AD0009C201344C7F89C30BB6E9B00D7F898209D
:109AE0001344C7F898307B6E9B00D7F8942013443A
:109AF000C7F89430D7F88030023B5B08C7F8843051
:109B00001AE33B6893ED007AD7F88C30D3ED007AF6
:109B100077EE277AC7ED187A3B6893ED007AD7F88D
:109B20008C30D3ED007A77EE677AC7ED177A3B6811
:109B3000043393ED007AD7F88C300433D3ED007AF8
:109B400077EE277AC7ED167A3B68043393ED007AF7
:109B5000D7F88C300433D3ED007A77EE677AC7ED0F
:109B6000157AD7F89030043393ED007AD7ED177A51
:109B700037EE277AD7F888300433D3ED007A77EEC2
:109B8000677AC7ED0B7AD7F89030D3ED007A97ED6E
:109B9000157A37EE677AD7F88830D3ED007A77EE0A
:109BA000277AC7ED0C7AD7F89030D3ED007A97ED8D
:109BB000187A37EE677AD7F88830D3ED007A77EEE7
:109BC000677AC7ED077AD7F890300433D3ED007A7F
:109BD00097ED167A37EE677AD7F888300433D3EDED
:109BE000007A77EE677AC7ED087AD7F890300433B9
:109BF000D3ED007A97ED177A37EE677AD7F8883089
:109C00000433D3ED007A77EE277AC7ED037AD7F8DD
:109C1000903093ED007AD7ED157A37EE277AD7F8A2
:109C20008830D3ED007A77EE677AC7ED047AD7F8FB
:109C3000903093ED007AD7ED187A37EE277AD7F87F
:109C40008830D3ED007A3B681A1D3A6077EE277AA8
:109C5000C3ED007AD7F89030043393ED007AD7ED56
:109C6000167A37EE277AD7F888300433D3ED007AA6
:109C70003B681A1D3A6077EE277AC3ED007AD7F871
:109C8000AC30043B93ED007AD7F8A430043BD3ED1D
:109C9000007A77EE277AC7ED167AD7F8AC30043B16
:109CA00093ED007AD7F8A430043BD3ED007A77EE39
:109CB000677AC7ED157AD7F8AC3093ED007AD7F80C
:109CC000A430D3ED007A77EE277AC7ED187AD7F86B
:109CD000AC3093ED007AD7F8A430D3ED007A77EE6C
:109CE000677AC7ED177AD7F8A83093ED007AD7F8DE
:109CF000A030D3ED007A37EE677AD7ED157A77EE9C
:109D0000277AC7ED0D7AD7F8AC3093ED007AD7F803
:109D1000A430D3ED007A37EE677AD7F8A830043B49
:109D2000D3ED007A37EE677AD7F8A030043BD3ED55
:109D3000007A77EE277AC7ED0E7AD7F8A830043B81
:109D4000D3ED007A97ED167A37EE677AD7F8A03020
:109D5000043BD3ED007A77EE677AC7ED097AD7F83E
:109D6000A830D3ED007A97ED187A37EE677AD7F8F6
:109D7000A030D3ED007A77EE677AC7ED0A7AD7F88C
:109D8000A83093ED007AD7F8A030D3ED007A37EE03
:109D9000677AD7ED157A77EE677AC7ED057AD7F847
:109DA000A030043B93ED007AD7F8A830043BD3ED04
:109DB000007A37EE677AD7ED177A77EE677AC7EDD4
:109DC000067AD7F8A83093ED007AD7ED187A37EEF7
:109DD000277AD7F8A030D3ED007AD7F8AC301A1F25
:109DE000C7F8AC2077EE277AC3ED007AD7F8A83011
:109DF000043B93ED007AD7ED167A37EE277AD7F841
:109E0000A030043BD3ED007AD7F8AC301A1FC7F866
:109E1000AC2077EE277AC3ED007AD7F89C301A1D74
:109E2000C7F89C201B683B65D7F89C301A1DC7F803
:109E30009C201B68FB64D7ED0B7A97ED147A67EED4
:109E4000277AC7ED127AD7ED0C7A97ED137A67EE81
:109E5000277AC7ED117AD7ED0C7A97ED147A67EE71
:109E6000277AC7ED107AD7ED0B7A97ED137A67EE64
:109E7000277AC7ED0F7AD7F890301A1DC7F89020CF
:109E800097ED127AD7ED117A77EE277AC3ED007A43
:109E9000D7F890301A1DC7F8902097ED107AD7EDBB
:109EA0000F7A77EE677AC3ED007AD7ED0E7A97EDE9
:109EB000137A67EE277AC7ED127AD7ED0D7A97ED10
:109EC000147A67EE277AC7ED117AD7ED0D7A97ED00
:109ED000137A67EE277AC7ED107AD7ED0E7A97EDF1
:109EE000147A67EE277AC7ED0F7AD7F8A8301A1FD1
:109EF000C7F8A82097ED127AD7ED117A77EE677A36
:109F0000C3ED007AD7F8A8301A1FC7F8A82097ED3C
:109F1000107AD7ED0F7A77EE277AC3ED007AD7F86B
:109F200098301B683B65D7F898305B68FB64BB6E64
:109F30009B00D7F898201344C7F89830D7ED077ADC
:109F400097ED147A67EE277AC7ED127AD7ED087A83
:109F500097ED137A67EE277AC7ED117AD7ED087A75
:109F600097ED147A67EE277AC7ED107AD7ED077A66
:109F700097ED137A67EE277AC7ED0F7AD7F88C3012
:109F80001A1DC7F88C2097ED127AD7ED117A77EE6B
:109F9000277AC3ED007AD7F88C301A1DC7F88C20C9
:109FA00097ED107AD7ED0F7A77EE677AC3ED007AE6
:109FB000D7ED0A7AF1EE677A97ED147A67EE277A91
:109FC000C7ED127AD7ED097A97ED137A67EE277A03
:109FD000C7ED117AD7ED097A97ED147A67EE277AF3
:109FE000C7ED107AD7ED0A7A97ED137A67EE277AE4
:109FF000C7ED0F7AD7F8A4301A1FC7F8A42097ED41
:10A00000127AD7ED117A77EE677AC3ED007AD7F836
:10A01000A4301A1FC7F8A42097ED0F7AD7ED107A55
:10A0200077EE677AC3ED007AD7F894301B683B650A
:10A03000D7F894305B68FB647B6E9B00D7F8942064
:10A040001344C7F89430D7ED037A97ED147A67EE8E
:10A05000277AC7ED127AD7ED047A97ED137A67EE77
:10A06000277AC7ED117AD7ED047A97ED147A67EE67
:10A07000277AC7ED107AD7ED037A97ED137A67EE5A
:10A08000277AC7ED0F7AD7F888301A1DC7F88820CD
:10A0900097ED127AD7ED117A77EE277AC3ED007A31
:10A0A000D7F888301A1DC7F8882097ED107AD7EDB9
:10A0B0000F7A77EE677AC3ED007AD7ED067A97EDDF
:10A0C000137A67EE277AC7ED127AD7ED057A97ED06
:10A0D000147A67EE277AC7ED117AD7ED057A97EDF6
:10A0E000137A67EE277AC7ED107AD7ED067A97EDE7
:10A0F000147A67EE277AC7ED0F7AD7F8A0301A1FC7
:10A10000C7F8A02097ED127AD7ED117A77EE677A2B
:10A11000C3ED007AD7F8A0301A1FC7F8A02097ED3A
:10A12000107AD7ED0F7A77EE277AC3ED007AD7F859
:10A130008430013BC7F88430D7F88430002B7FF49B
:10A14000E0AC3B6893ED007AD7F88C30D3ED007A21
:10A1500077EE277AC7ED187A3B6893ED007AD7F847
:10A160008C30D3ED007A77EE677AC7ED177A3B68CB
:10A17000043393ED007AD7F88C300433D3ED007AB2
:10A1800077EE277AC7ED167A3B68043393ED007AB1
:10A19000D7F88C300433D3ED007A77EE677AC7EDC9
:10A1A000157AD7F89030043393ED007AD7ED177A0B
:10A1B00037EE277AD7F888300433D3ED007A77EE7C
:10A1C000677AC7ED0B7AD7F89030D3ED007A97ED28
:10A1D000157A37EE677AD7F88830D3ED007A77EEC4
:10A1E000277AC7ED0C7AD7F89030D3ED007A97ED47
:10A1F000187A37EE677AD7F88830D3ED007A77EEA1
:10A20000677AC7ED077AD7F890300433D3ED007A38
:10A2100097ED167A37EE677AD7F888300433D3EDA6
:10A22000007A77EE677AC7ED087AD7F89030043372
:10A23000D3ED007A97ED177A37EE677AD7F8883042
:10A240000433D3ED007A77EE277AC7ED037AD7F897
:10A25000903093ED007AD7ED157A37EE277AD7F85C
:10A260008830D3ED007A77EE677AC7ED047AD7F8B5
:10A27000903093ED007AD7ED187A37EE277AD7F839
:10A280008830D3ED007A3B681A1D3A6077EE277A62
:10A29000C3ED007AD7F89030043393ED007AD7ED10
:10A2A000167A37EE277AD7F888300433D3ED007A60
:10A2B0003B681A1D3A6077EE277AC3ED007AD7F82B
:10A2C0009C301B683B65D7F89C305B68FB64D7ED1E
:10A2D0000B7A97ED147A67EE277AC7ED127AD7EDED
:10A2E0000C7A97ED137A67EE277AC7ED117AD7EDDE
:10A2F0000C7A97ED147A67EE277AC7ED107AD7EDCE
:10A300000B7A97ED137A67EE277AC7ED0F7AD7F8B5
:10A3100090301A1DC7F8902097ED127AD7ED117A78
:10A3200077EE277AC3ED007AD7F890301A1DC7F878
:10A33000902097ED107AD7ED0F7A77EE677AC3ED1C
:10A34000007AD7F898301B683B65D7F898305B687F
:10A35000FB64D7ED077A97ED147A67EE277AC7ED9D
:10A36000127AD7ED087A97ED137A67EE277AC7ED60
:10A37000117AD7ED087A97ED147A67EE277AC7ED50
:10A38000107AD7ED077A97ED137A67EE277AC7ED43
:10A390000F7AD7F88C301A1DC7F88C2097ED127AF7
:10A3A000D7ED117A77EE277AC3ED007AD7F88C30A3
:10A3B0001A1DC7F88C2097ED107AD7ED0F7A77EE3B
:10A3C000677AC3ED007AD7F894301B683B65D7F8FD
:10A3D00094305B68FB64D7ED037A97ED147A67EEEF
:10A3E000277AC7ED127AD7ED047A97ED137A67EEE4
:10A3F000277AC7ED117AD7ED047A97ED147A67EED4
:10A40000277AC7ED107AD7ED037A97ED137A67EEC6
:10A41000277AC7ED0F7AD7F888301A1DC7F8882039
:10A4200097ED127AD7ED117A77EE277AC3ED007A9D
:10A43000D7F888301A1DC7F8882097ED107AD7ED25
:10A440000F7A77EE677AC3ED007AD7F8803099B249
:10A450007B685A680423F86F00F0DAF8D7F8803088
:10A4600099B27B685A680423B86F00F0D1F8D7F826
:10A47000803099B27B685A680423786F00F0C8F87E
:10A48000D7F8803099B27B685A680423386F00F09F
:10A49000BFF800BFB037BD4680BD80B588B000AF03
:10A4A000F860B96011461A460B46FB711346BB7142
:10A4B000FB681B887B61FB79012B17D1BB680433D8
:10A4C000BB610023FB610DE0BB69D3ED007AF1EEC7
:10A4D000677ABB69C3ED007ABB690833BB61FB696E
:10A4E0000133FB61FA697B699A42EDD37B69B3F56D
:10A4F000805F40D07B69B3F5805F45D87B69B3F559
:10A50000006F33D07B69B3F5006F3DD87B69B3F53D
:10A51000806F26D07B69B3F5806F35D87B69B3F542
:10A52000007F28D07B69B3F5007F2DD87B69B3F518
:10A53000807F1BD07B69B3F5807F25D87B69802B1A
:10A540000FD07B69802B1FD87B69402B13D07B6990
:10A55000402B19D87B69102B03D07B69202B05D0A9
:10A5600012E0B968F868FEF779FF0DE0B968F8689D
:10A57000FFF768F908E07B6999B2FB685A68012324
:10A58000B86800F045F800BFBB79002B07D0FB6826
:10A590009989FB689B681A46B868FDF751FEFB79FC
:10A5A000012B30D17B6907EE903AB8EE677AF7EE6F
:10A5B000006AC6EE877AC7ED047ABB68BB610023E8
:10A5C000FB611CE0BB691A1DBA6193ED007AD7EDFF
:10A5D000047A67EE277AC3ED007ABB69D3ED007A7F
:10A5E000B1EE677AD7ED047A67EE277ABB69C3EDDF
:10A5F000007ABB690433BB61FB690133FB61FA6913
:10A600007B699A42DED300BF2037BD4680BD000083
:10A6100080B4BDB000AFF8607A601A460B467B810B
:10A6200013463B81094BC7F8DC307B89C7F8E4301F
:10A63000D7F8E430C7F8D830D7F8E430DB08C7F8EB
:10A64000E4300023C7F8E83002E000BFF304353FF0
:10A65000D7F8E820D7F8E4301344C7F8D430D7F857
:10A66000D420D7F8E4301344C7F8D030D7F8D0203E
:10A67000D7F8E4301344C7F8CC30D7F8CC20D7F85B
:10A68000E4301344C7F8C830D7F8C820D7F8E4300E
:10A690001344C7F8C430D7F8C420D7F8E4301344C3
:10A6A000C7F8C030D7F8C020D7F8E4301344C7F853
:10A6B000BC30D7F8E830DB00FA68134493ED007A39
:10A6C000D7F8C830DB00FA681344D3ED007A77EE90
:10A6D000277AC7ED2E7AD7F8E830DB00FA68134402
:10A6E00093ED007AD7F8C830DB00FA681344D3ED55
:10A6F000007A77EE677AC7ED2D7AD7F8D430DB0091
:10A70000FA68134493ED007AD7F8C430DB00FA6896
:10A710001344D3ED007A77EE277AC7ED2C7AD7F879
:10A72000D430DB00FA68134493ED007AD7F8C430D4
:10A73000DB00FA681344D3ED007A77EE677AC7ED51
:10A740002B7AD7F8D030DB00FA68134493ED007A07
:10A75000D7F8C030DB00FA681344D3ED007A77EE07
:10A76000277AC7ED2A7AD7F8D030DB00FA6813448D
:10A7700093ED007AD7F8C030DB00FA681344D3EDCC
:10A78000007A77EE677AC7ED297AD7F8CC30DB000C
:10A79000FA68134493ED007AD7F8BC30DB00FA680E
:10A7A0001344D3ED007A77EE277AC7ED287AD7F8ED
:10A7B000CC30DB00FA68134493ED007AD7F8BC3054
:10A7C000DB00FA681344D3ED007A77EE677AC7EDC1
:10A7D000277A97ED2E7AD7ED2A7A77EE677AC7ED4A
:10A7E000267A97ED2E7AD7ED2A7A77EE277AC7ED7B
:10A7F0002E7A97ED2C7AD7ED287A77EE677AC7ED27
:10A800002A7A97ED2C7AD7ED287A77EE277AC7ED5A
:10A810002C7AD7F8E830DB00FA68134497ED2E7AEB
:10A82000D7ED2C7A77EE277AC3ED007AD7F8C830C7
:10A83000DB00FA68134497ED2E7AD7ED2C7A77EE89
:10A84000677AC3ED007AD7F8E830DB000433FA68A2
:10A85000134493ED007AD7F8C830DB000433FA686C
:10A860001344D3ED007A77EE277AC7ED2E7AD7F826
:10A87000E830DB000433FA68134493ED007AD7F82C
:10A88000C830DB000433FA681344D3ED007A77EE66
:10A89000677AC7ED257AD7F8D430DB000433FA683D
:10A8A000134493ED007AD7F8C430DB000433FA6820
:10A8B0001344D3ED007A77EE277AC7ED2C7AD7F8D8
:10A8C000D430DB000433FA68134493ED007AD7F8F0
:10A8D000C430DB000433FA681344D3ED007A77EE1A
:10A8E000677AC7ED247AD7F8D030DB000433FA68F2
:10A8F000134493ED007AD7F8C030DB000433FA68D4
:10A900001344D3ED007A77EE277AC7ED237AD7F890
:10A91000D030DB000433FA68134493ED007AD7F8A3
:10A92000C030DB000433FA681344D3ED007A77EECD
:10A93000677AC7ED227AD7F8CC30DB000433FA68A7
:10A94000134493ED007AD7F8BC30DB000433FA6887
:10A950001344D3ED007A77EE277AC7ED287AD7F83B
:10A96000CC30DB000433FA68134493ED007AD7F857
:10A97000BC30DB000433FA681344D3ED007A77EE81
:10A98000677AC7ED217A97ED2E7AD7ED237A77EEA5
:10A99000677AC7ED207A97ED2E7AD7ED237A77EE96
:10A9A000277AC7ED2E7A97ED2C7AD7ED287A77EEB5
:10A9B000677AC7ED237A97ED2C7AD7ED287A77EE70
:10A9C000277AC7ED2C7AD7F8E830DB000433FA6831
:10A9D000134497ED2E7AD7ED2C7A77EE277AC3EDD4
:10A9E000007AD7F8C830DB000433FA68134497EDD7
:10A9F0002E7AD7ED2C7A77EE677AC3ED007AD7F806
:10AA0000D030DB00FA68134497ED267AD7ED237A2D
:10AA100077EE277AC3ED007AD7F8C030DB00FA680A
:10AA2000134497ED267AD7ED237A77EE677AC3ED54
:10AA3000007AD7F8D030DB000433FA68134497ED7E
:10AA4000207AD7ED2A7A77EE677AC3ED007AD7F8C5
:10AA5000C030DB000433FA68134497ED207AD7ED59
:10AA60002A7A77EE277AC3ED007A97ED2B7AD7ED25
:10AA7000277A77EE677A97ED377A67EE277AC7ED10
:10AA80002E7A97ED2B7AD7ED277A77EE277A97ED06
:10AA9000377A67EE277AC7ED2B7A97ED247AD7EDD0
:10AAA000217A77EE677A97ED377A67EE277AC7EDE6
:10AAB0002C7A97ED247AD7ED217A77EE277A97EDE5
:10AAC000377A67EE277AC7ED247A97ED2D7AD7ED9E
:10AAD0002E7A77EE677AC7ED267A97ED2D7AD7ED45
:10AAE0002E7A77EE277AC7ED2D7A97ED297AD7ED72
:10AAF0002B7A77EE677AC7ED277A97ED297AD7ED2B
:10AB00002B7A77EE277AC7ED297A97ED257AD7ED5C
:10AB10002C7A77EE677AC7ED207A97ED257AD7ED14
:10AB20002C7A77EE277AC7ED257A97ED227AD7ED42
:10AB3000247A77EE677AC7ED217A97ED227AD7EDFE
:10AB4000247A77EE277AC7ED227AD7F8D430DB0063
:10AB5000FA68134497ED2D7AD7ED227A77EE277AAB
:10AB6000C3ED007AD7F8BC30DB00FA68134497EDE8
:10AB70002D7AD7ED227A77EE677AC3ED007AD7F88F
:10AB8000C430DB00FA68134497ED267AD7ED217ABA
:10AB900077EE277AC3ED007AD7F8CC30DB00FA687D
:10ABA000134497ED267AD7ED217A77EE677AC3EDD5
:10ABB000007AD7F8D430DB000433FA68134497EDF9
:10ABC000257AD7ED297A77EE677AC3ED007AD7F840
:10ABD000BC30DB000433FA68134497ED257AD7EDD7
:10ABE000297A77EE277AC3ED007AD7F8C430DB00F4
:10ABF0000433FA68134497ED207AD7ED277A77EE7D
:10AC0000677AC3ED007AD7F8CC30DB000433FA68FA
:10AC1000134497ED207AD7ED277A77EE277AC3EDA4
:10AC2000007AD7F8E820D7F8D8301344C7F8E830CE
:10AC30007B89D7F8E8209A42FFF40AADD7F8E430D0
:10AC4000072B40F2E3840023C7F8EC300123C7F858
:10AC5000E0303B89D7F8EC201344FB67FB6FC7F863
:10AC6000EC30D7F8EC20FB6F1344BB67BA6FFB6F77
:10AC700013447B677A6FFB6F13443B673A6FFB6F3C
:10AC80001344FB66FA6EFB6F1344BB66BA6EFB6F30
:10AC900013447B66D7F8EC30DB007A6813441B68FA
:10ACA0003B66BB6FDB007A6813441B68FB657B6FF8
:10ACB000DB007A6813441B68BB653B6FDB007A6876
:10ACC00013441B687B65FB6EDB007A6813441B68CA
:10ACD0003B65BB6EDB007A6813441B68FB647B6ECC
:10ACE000DB007A6813441B68BB64D7F8EC30DB00E8
:10ACF00004337A6813441B687B64BB6FDB00043346
:10AD00007A6813441B683B647B6FDB0004337A680A
:10AD100013441B68FB633B6FDB0004337A68134406
:10AD20001B68BB63FB6EDB0004337A6813441B684B
:10AD30007B63BB6EDB0004337A6813441B683B63A0
:10AD40007B6EDB0004337A6813441B68FB62D7F820
:10AD5000E030C7F8E830D7F8E820D7F8E4301344FB
:10AD6000C7F8D430D7F8D420D7F8E4301344C7F864
:10AD7000D030D7F8D020D7F8E4301344C7F8CC301F
:10AD8000D7F8CC20D7F8E4301344C7F8C830D7F848
:10AD9000C820D7F8E4301344C7F8C430D7F8C4202B
:10ADA000D7F8E4301344C7F8C030D7F8C020D7F83C
:10ADB000E4301344C7F8BC30D7F8E830DB00FA6859
:10ADC000134493ED007AD7F8C830DB00FA681344D7
:10ADD000D3ED007A77EE277AC7ED2E7AD7F8E830F0
:10ADE000DB00FA68134493ED007AD7F8C830DB0033
:10ADF000FA681344D3ED007A77EE677AC7ED2D7ABF
:10AE0000D7F8D430DB00FA68134493ED007AD7F812
:10AE1000C430DB00FA681344D3ED007A77EE277A6A
:10AE2000C7ED2C7AD7F8D430DB00FA68134493EDE1
:10AE3000007AD7F8C430DB00FA681344D3ED007A07
:10AE400077EE677AC7ED2B7AD7F8D030DB00FA6857
:10AE5000134493ED007AD7F8C030DB00FA6813444E
:10AE6000D3ED007A77EE277AC7ED2A7AD7F8D0307B
:10AE7000DB00FA68134493ED007AD7F8C030DB00AA
:10AE8000FA681344D3ED007A77EE677AC7ED297A32
:10AE9000D7F8CC30DB00FA68134493ED007AD7F88A
:10AEA000BC30DB00FA681344D3ED007A77EE277AE2
:10AEB000C7ED287AD7F8CC30DB00FA68134493ED5D
:10AEC000007AD7F8BC30DB00FA681344D3ED007A7F
:10AED00077EE677AC7ED277A97ED2E7AD7ED2A7A43
:10AEE00077EE677AC7ED267A97ED2E7AD7ED2A7A34
:10AEF00077EE277AC7ED2E7A97ED2C7AD7ED287A60
:10AF000077EE677AC7ED2A7A97ED2C7AD7ED287A13
:10AF100077EE277AC7ED2C7AD7F8E830DB00FA68AD
:10AF2000134497ED2E7AD7ED2C7A77EE277AC3ED7E
:10AF3000007A97ED2E7AD7ED2C7A77EE677AC7ED07
:10AF40002C7AD7F8E830DB000433FA68134493ED29
:10AF5000007AD7F8C830DB000433FA681344D3ED25
:10AF6000007A77EE277AC7ED0A7AD7F8E830DB0067
:10AF70000433FA68134493ED007AD7F8C830DB0045
:10AF80000433FA681344D3ED007A77EE677AC7ED9D
:10AF9000257AD7F8D430DB000433FA68134493EDF4
:10AFA000007AD7F8C430DB000433FA681344D3EDD9
:10AFB000007A77EE277AC7ED097AD7F8D430DB002C
:10AFC0000433FA68134493ED007AD7F8C430DB00F9
:10AFD0000433FA681344D3ED007A77EE677AC7ED4D
:10AFE000247AD7F8D030DB000433FA68134493EDA9
:10AFF000007AD7F8C030DB000433FA681344D3ED8D
:10B00000007A77EE277AC7ED237AD7F8D030DB00C5
:10B010000433FA68134493ED007AD7F8C030DB00AC
:10B020000433FA681344D3ED007A77EE677AC7EDFC
:10B03000227AD7F8CC30DB000433FA68134493ED5E
:10B04000007AD7F8BC30DB000433FA681344D3ED40
:10B05000007A77EE277AC7ED087AD7F8CC30DB0094
:10B060000433FA68134493ED007AD7F8BC30DB0060
:10B070000433FA681344D3ED007A77EE677AC7EDAC
:10B08000217A97ED0A7AD7ED237A77EE677AC7EDC2
:10B09000207A97ED0A7AD7ED237A77EE277AC7EDF3
:10B0A0000A7A97ED097AD7ED087A77EE677AC7EDD5
:10B0B000237A97ED097AD7ED087A77EE277AC7EDEC
:10B0C000097A97ED267AD7ED237A77EE277AC7EDBE
:10B0D0002E7A97ED267AD7ED237A77EE677AC7ED49
:10B0E000267AD7F8E830DB000433FA68134497ED8A
:10B0F0000A7AD7ED097A77EE277AC3ED007A97EDD1
:10B100000A7AD7ED097A77EE677AC7ED097A97ED73
:10B11000207AD7ED2A7A77EE677AC7ED0A7A97ED2B
:10B12000207AD7ED2A7A77EE277AC7ED207A97ED45
:10B13000157AD7ED2C7A67EE277AC7ED077A97ED67
:10B140000E7AD7ED097A67EE277AC7ED067A97ED82
:10B15000157AD7ED097A67EE277AC7ED057A97ED6C
:10B160000E7AD7ED2C7A67EE277AC7ED047AD7F8F6
:10B17000C830DB00FA68134497ED077AD7ED067AFA
:10B1800077EE277AC3ED007AD7F8C830DB000433B6
:10B19000FA68134497ED057AD7ED047A77EE677A6B
:10B1A000C3ED007A97ED177AD7ED2E7A67EE277AFE
:10B1B000C7ED077A97ED107AD7ED0A7A67EE277A0E
:10B1C000C7ED067A97ED177AD7ED0A7A67EE277AF8
:10B1D000C7ED057A97ED107AD7ED2E7A67EE277ACC
:10B1E000C7ED047AD7F8D030DB00FA68134497ED46
:10B1F000077AD7ED067A77EE277AC3ED007AD7F88B
:10B20000D030DB000433FA68134497ED057AD7EDAC
:10B21000047A77EE677AC3ED007A97ED137AD7ED6B
:10B22000267A67EE277AC7ED077A97ED0C7AD7ED85
:10B23000207A67EE277AC7ED067A97ED137AD7ED75
:10B24000207A67EE277AC7ED057A97ED0C7AD7ED6D
:10B25000267A67EE277AC7ED047AD7F8C030DB008C
:10B26000FA68134497ED077AD7ED067A77EE277AD6
:10B27000C3ED007AD7F8C030DB000433FA6813441A
:10B2800097ED057AD7ED047A77EE677AC3ED007A09
:10B2900097ED2B7AD7ED277A77EE677A97ED377AA5
:10B2A00067EE277AC7ED2E7A97ED2B7AD7ED277ABE
:10B2B00077EE277A97ED377A67EE277AC7ED2B7A04
:10B2C00097ED247AD7ED217A77EE677A97ED377A82
:10B2D00067EE277AC7ED0A7A97ED247AD7ED217ABF
:10B2E00077EE277A97ED377A67EE277AC7ED247ADB
:10B2F00097ED2D7AD7ED2E7A77EE677AC7ED267A1D
:10B3000097ED2D7AD7ED2E7A77EE277AC7ED2D7A45
:10B3100097ED297AD7ED2B7A77EE677AC7ED277A02
:10B3200097ED297AD7ED2B7A77EE277AC7ED297A30
:10B3300097ED257AD7ED0A7A77EE677AC7ED207A0E
:10B3400097ED257AD7ED0A7A77EE277AC7ED257A39
:10B3500097ED227AD7ED247A77EE677AC7ED217AD6
:10B3600097ED227AD7ED247A77EE277AC7ED227A05
:10B3700097ED2D7AD7ED227A77EE277AC7ED2E7AE0
:10B3800097ED2D7AD7ED227A77EE677AC7ED2D7A91
:10B3900097ED267AD7ED217A77EE277AC7ED2B7ACB
:10B3A00097ED267AD7ED217A77EE677AC7ED267A80
:10B3B00097ED257AD7ED297A77EE677AC7ED0A7A85
:10B3C00097ED257AD7ED297A77EE277AC7ED257A9A
:10B3D00097ED207AD7ED277A77EE677AC7ED247A52
:10B3E00097ED207AD7ED277A77EE277AC7ED207A86
:10B3F00097ED187AD7ED2E7A67EE277AC7ED077AA0
:10B4000097ED117AD7ED0A7A67EE277AC7ED067ABB
:10B4100097ED187AD7ED0A7A67EE277AC7ED057AA5
:10B4200097ED117AD7ED2E7A67EE277AC7ED047A79
:10B43000D7F8D430DB00FA68134497ED077AD7EDDC
:10B44000067A77EE277AC3ED007AD7F8D430DB009E
:10B450000433FA68134497ED057AD7ED047A77EE52
:10B46000677AC3ED007A97ED127AD7ED2D7A67EE01
:10B47000277AC7ED077A97ED0B7AD7ED257A67EE35
:10B48000277AC7ED067A97ED127AD7ED257A67EE1F
:10B49000277AC7ED057A97ED0B7AD7ED2D7A67EE0F
:10B4A000277AC7ED047AD7F8BC30DB00FA6813447A
:10B4B00097ED077AD7ED067A77EE277AC3ED007A13
:10B4C000D7F8BC30DB000433FA68134497ED057AF3
:10B4D000D7ED047A77EE677AC3ED007A97ED147AA8
:10B4E000D7ED2B7A67EE277AC7ED077A97ED0D7ABD
:10B4F000D7ED247A67EE277AC7ED067A97ED147AAE
:10B50000D7ED247A67EE277AC7ED057A97ED0D7AA5
:10B51000D7ED2B7A67EE277AC7ED047AD7F8C430D7
:10B52000DB00FA68134497ED077AD7ED067A77EED9
:10B53000277AC3ED007AD7F8C430DB000433FA6809
:10B54000134497ED057AD7ED047A77EE677AC3ED69
:10B55000007A97ED167AD7ED267A67EE277AC7ED4F
:10B56000077A97ED0F7AD7ED207A67EE277AC7ED45
:10B57000067A97ED167AD7ED207A67EE277AC7ED2F
:10B58000057A97ED0F7AD7ED267A67EE277AC7ED21
:10B59000047AD7F8CC30DB00FA68134497ED077AC9
:10B5A000D7ED067A77EE277AC3ED007AD7F8CC305C
:10B5B000DB000433FA68134497ED057AD7ED047A7B
:10B5C00077EE677AC3ED007AD7F8E820D7F8D8305D
:10B5D0001344C7F8E8307B89D7F8E8209A42FFF493
:10B5E000BAABD7F8E0300133C7F8E030D7F8E02045
:10B5F000D7F8E4309A42FFF42CAB3B89DB003B8167
:10B60000D7F8E430072B3FF613A800E000BF00BFD7
:10B61000F437BD465DF8047B704700BF80B582B04B
:10B6200000AF03460A46FB711346BB71FB791B0151
:10B630005AB297F9063013435BB2DBB219460120C8
:10B6400000F032F800BF0837BD4680BD80B584B039
:10B6500000AF0346FB71FB793B73002210210948C0
:10B6600005F012FC07F10C0132230122064807F015
:10B670003EFB01221021034805F006FC00BF1037F5
:10B68000BD4680BD00000240682D002080B582B01C
:10B6900000AF0346FB71FB791946032000F004F864
:10B6A00000BF0837BD4680BD80B584B000AF0346FB
:10B6B0000A46FB711346BB71FB7943F05003DBB2C2
:10B6C0003B7300237B73BB79BB73002210210948B5
:10B6D00005F0DAFB07F10C0164230322064807F0AA
:10B6E00006FB01221021034805F0CEFB00BF1037F6
:10B6F000BD4680BD00000240682D002080B582B0AC
:10B7000000AF0346FB71FB7919460220FFF7CCFF1F
:10B7100000BF0837BD4680BD80B582B000AF0023B2
:10B720007B6009E00821094805F096FB0346002BE1
:10B7300007D07B6801337B607B68054A9342F1D375
:10B7400000E000BF00BF0837BD4680BD00000240DA
:10B75000005A620280B582B000AFFFF7DDFF002023
:10B7600000F020F80346FB71FB79DBB21B09DBB26A
:10B7700018460837BD4680BD80B584B002AFFF23B0
:10B78000FB710023BB71BA1DF91D32230093012305
:10B79000034807F01AFCBB7918460837BD4680BD40
:10B7A000682D002080B584B000AF0346FB71FB79A3
:10B7B00043F01003DBB23B7300237B7300221021A4
:10B7C0000D4805F061FB07F10C01322302220B4802
:10B7D00007F08DFA0A2001F041FBFFF7CDFF034689
:10B7E000FB7301221021044805F04EFBFB7B184639
:10B7F0001037BD4680BD00BF00000240682D00200C
:10B8000080B582B000AF0123FB7150233B71FB79FF
:10B810005B005BB243F004035BB2DBB27B710022DE
:10B820001021094805F030FB391D32230222074858
:10B8300007F05DFA01221021034805F025FB00BF47
:10B840000837BD4680BD00BF00000240682D0020C3
:10B8500080B400AFBFF34F8F00BF064BDB6803F42B
:10B86000E0620449044B1343CB60BFF34F8F00BF2A
:10B8700000BFFDE700ED00E00400FA0580B52DED06
:10B880000C8BA0B01CAFF860B9607A60694B5B7834
:10B89000002B08D0674B00221A704FF47A7001F029
:10B8A00035FBFFF7D5FF634B1B78002B00F0BB8007
:10B8B000BB68D3ED0A7A9FED607A67EE877AB7EEC0
:10B8C000E77ABB68D3ED0B6A9FED5B6A66EE866A2A
:10B8D000B7EEE66ABB68D3ED0D5A9FED575A65EE99
:10B8E000855AB7EEE55ABB68D3ED004A9FED524A40
:10B8F00064EE844AB7EEE44ABB68D3ED063A9FEDA6
:10B900004E3A63EE833AB7EEE33ABB68D3ED022AD0
:10B910009FED492A62EE822AB7EEE22ABB68D3ED98
:10B92000041A9FED451A61EE811AB7EEE11ABB6861
:10B93000D3ED070A9FED400A60EE800AB7EEE00AF9
:10B94000BB6893ED088ADFED3C8A28EE288AB7EEC3
:10B95000C88ABB6893ED099ADFED379A29EE299AD8
:10B96000B7EEC99A354B93ED0EAADFED33AA2AEE56
:10B970002AAAB7EECAAA314B93ED0FBADFED2EBA61
:10B980002BEE2BBAB7EECBBA2C4B93ED10CADFEDF2
:10B990002ACA2CEE2CCAB7EECCCA284B93ED36DA65
:10B9A000DFED27DA2DEE2DDAB7EECDDA8DED1ADBED
:10B9B0008DED18CB8DED16BB8DED14AB8DED129B7F
:10B9C0008DED108B8DED0E0B8DED0C1B8DED0A2B7F
:10B9D0008DED083B8DED064B8DED045B8DED026B1F
:10B9E0008DED007B174A8021174803F0DBFF1648D6
:10B9F000FCF786FC0346802B04D81348FCF780FC38
:10BA0000034600E080230B4AC2F8243200BF094BF2
:10BA1000D3F824329BB21A460B49F86808F020FA92
:10BA20000346002BF3D100BF1037BD46BDEC0C8B95
:10BA300080BD00BFE070002000007A441C0200209E
:10BA40000000C84230D701088071002080B586B060
:10BA500000AFF860B9607A60FB681B78002B11D0EA
:10BA6000B968F8680DF02EFE78617B681A46B968EF
:10BA700078690DF013FE0346002B01D1012302E08B
:10BA8000002300E0002318461837BD4680BD80B46F
:10BA900085B000AF786039604FF00003FB60002391
:10BAA000BB600EE0BB689B007A681344D3ED007A5C
:10BAB00097ED037A77EE277AC7ED037ABB680133F7
:10BAC000BB60BA683B689A42ECDB3B6807EE903A91
:10BAD000F8EEE77A97ED037AC7EE276AF0EE667A1A
:10BAE000B0EE670A1437BD465DF8047B704780B539
:10BAF00088B000AFF860B9607A60B968F868FFF79D
:10BB0000C6FF87ED050A4FF00003FB610023BB6110
:10BB100025E0BB699B00FA68134493ED007AD7EDEA
:10BB2000057A77EE677AB7EEE77A7B6806EE903AA9
:10BB3000B8EEE66BB0EE461BB0EE470B11F0E4FA40
:10BB4000B0EE406BD7ED077AB7EEE77A36EE077BBB
:10BB5000F7EEC77BC7ED077ABB690133BB61BA69F2
:10BB6000BB689A42D5DBBB6807EE903AF8EEE77AFD
:10BB700097ED077AC7EE276AF0EE667AB0EE670AAD
:10BB80002037BD4680BD80B586B000AF7860396093
:10BB900039687868FFF77BFF87ED030A4FF00003F1
:10BBA0007B6100233B6118E03B699B007A6813448A
:10BBB00093ED007AD7ED037A77EE677AC7ED027AD4
:10BBC000D7ED027A67EEA77A97ED057A77EE277AB6
:10BBD000C7ED057A3B6901333B613A693B689A429C
:10BBE000E2DB3B68013B07EE903AF8EEE77A97ED2F
:10BBF000057AC7EE276AF0EE667AB0EE670A183764
:10BC0000BD4680BD80B582B000AF786039603968CC
:10BC10007868FFF7B8FFF0EE407AB7EEE77AB0EE5B
:10BC2000470B11F0C5FCB0EE407BF7EEC77BB0EEE2
:10BC3000670A0837BD4680BD80B52DED028B86B002
:10BC400000AF78603960032239687868FFF74FFFEA
:10BC500087ED050A39687868FFF7D4FF87ED040A95
:10BC60003B68013BFB603B68FA6802FB03F307EEAD
:10BC7000903AB8EEE77BB0EE470B11F099FCB0EECE
:10BC8000405BFB6807EE903AB8EEE77B85EE076B0A
:10BC9000D7ED057AB7EEE77A26EE078BD7ED047A73
:10BCA000B7EEE77AB0EE081BB0EE470B11F02CFAB6
:10BCB000B0EE406B88EE067BF7EEC77BC7ED027AED
:10BCC000BB6807EE903AB0EE670A1837BD46BDEC88
:10BCD000028B80BD80B586B000AF786039600222EB
:10BCE00039687868FFF703FF87ED050A0422396891
:10BCF0007868FFF7FCFE87ED040AD7ED057A27EE9A
:10BD0000A77AD7ED046AC6EE877AB0EE087A77EEA6
:10BD1000C77AC7ED037AFB6807EE903AB0EE670A80
:10BD20001837BD4680BD000080B590B000AFF86008
:10BD3000B9601346FB71BB681B68002B00F0F980EB
:10BD40004FF480400CF016FCF86243F69823BB6277
:10BD5000BB6A07EE903AF8EEE76A7D4B1B6807EE88
:10BD6000903AB8EE677AC6EE877AC7ED097A4FF057
:10BD700000033B62BB681B6807EE903AF8EEE76A87
:10BD800097ED097AC6EE877AC7ED077ABB685B68DC
:10BD900007EE903AF8EEE76A97ED097AC6EE877AF1
:10BDA000C7ED067A4FF00003FB634FF00003BB635F
:10BDB0004FF000037B61D7ED067AFDEEE77A17EED0
:10BDC000903A7B6316E07B6B9B00FA68134493ED1B
:10BDD000007A7B6B9B00FA681344D3ED007A67EE20
:10BDE000277A97ED0F7A77EE277AC7ED0F7A7B6B7C
:10BDF00001337B63D7ED077AFDEEE77A17EE902AE1
:10BE00007B6B9342DFDBD7ED067AFDEEE77A17EE28
:10BE1000903A3B6349E03B6B002B0AD13B6B9B00A4
:10BE2000FA681A443B6B9B00F96A0B4412681A606B
:10BE300024E03B6B9B00FA681344D3ED007A9FED3E
:10BE4000457A67EE877AB7EEE75AD7ED097AB7EE0B
:10BE5000E77A9FED3B6B27EE066B3B6B07EE903A64
:10BE6000B8EEE77B26EE076B85EE067B3B6B9B000F
:10BE7000FA6A1344F7EEC77BC3ED007A3B6B9B0075
:10BE8000FA6A134493ED007A3B6B9B00FA6A134401
:10BE9000D3ED007A67EE277A97ED0E7A77EE277A60
:10BEA000C7ED0E7A3B6B01333B63D7ED077AFDEEAE
:10BEB000E77A17EE902A3B6B9342ACDBD7ED0F7A13
:10BEC00077EEA77AB7EEE77AB0EE470B11F070FB8A
:10BED000B0EE406B9FED1C5B86EE057BF7EEC77BFB
:10BEE000C7ED087AD7ED0E7A77EEA77AB7EEE77A44
:10BEF000B0EE470B11F05CFBB0EE406B9FED125BB8
:10BF000086EE057BF7EEC77BC7ED057A97F907301C
:10BF1000114A0E339B0013443A6A1A6097F90730AE
:10BF20000D4A22339B0013447A691A60F86A0CF0B8
:10BF3000EBFB00BF4037BD4680BD00BFAFF30080C4
:10BF40004AD8124DFB211940000000000000B0400B
:10BF50000C000020003C19461C02002000000000DC
:10BF600080B590B000AF786039604FF00003FB639C
:10BF70004FF00003BB624FF00003BB634FF00003C0
:10BF80007B634FF000033B610023FB6000233B63B6
:10BF900016E03B6B9B007A68134493ED007A3B6B91
:10BFA0009B007A681344D3ED007A67EE277A97ED09
:10BFB0000F7A77EE277AC7ED0F7A3B6B01333B633D
:10BFC0003B68002B00DA01335B101A463B6B93424F
:10BFD000DFDB4FF480537B624FF08B433B62944B2B
:10BFE000FB61D7ED076A97ED087AC6EE877AC7ED51
:10BFF000067A4FF000037B610023FB8551E0FA8D48
:10C000007B6A002B00DA01335B109A4246DAFB8D23
:10C01000002B0AD1FB8D9B007A681A44FB8D9B0094
:10C0200079680B4412681A6024E0FB8D9B007A68E3
:10C030001344D3ED007A9FED7F7A67EE877AB7EEEF
:10C04000E75AD7ED067AB7EEE77A9FED756B27EEE4
:10C05000066BFB8D07EE903AB8EEE77B26EE076B9A
:10C0600085EE067BFB8D9B007A681344F7EEC77B59
:10C07000C3ED007AFB8D9B007A68134493ED007A40
:10C08000FB8D9B007A681344D3ED007A67EE277A24
:10C0900097ED0E7A77EE277AC7ED0E7AFB8D013396
:10C0A000FB85FA8D7B6A002B00DA01335B109A4224
:10C0B000A5DB0023BB854DE0BA8D7B6A002B00DA3F
:10C0C00001335B109A4242DABB8D002B0AD1BB8D43
:10C0D0009B007A681A44BB8D9B0079680B441268F8
:10C0E0001A6020E0BB8D9B007A681344D3ED007A80
:10C0F000B7EEE75AD7ED067AB7EEE77A9FED486BD1
:10C1000027EE066BBB8D07EE903AB8EEE77B26EE86
:10C11000076B85EE067BBB8D9B007A681344F7EEB8
:10C12000C77BC3ED007ABB8D9B007A68134493ED07
:10C13000007ABB8D9B007A681344D3ED007A67EEDA
:10C14000277A97ED0D7A77EE277AC7ED0D7ABB8DBA
:10C150000133BB85BA8D7B6A002B00DA01335B109B
:10C160009A42A9DB07F10C0307F110024FF40061BA
:10C170007868FCF761FDD7ED0F7A77EEA77AB7EE16
:10C18000E77AB0EE470B11F013FAB0EE405B3B6874
:10C1900007EE903AB8EEE76B85EE067BF7EEC77BCD
:10C1A000C7ED0A7A244ABB6A9362D7ED0E7A77EE1E
:10C1B000A77AB7EEE77AB0EE470B11F0F9F9B0EED7
:10C1C000405B3B6807EE903AB8EEE76B85EE067B86
:10C1D000F7EEC77B184BC3ED0B7AD7ED0D7A77EEF0
:10C1E000A77AB7EEE77AB0EE470B11F0E1F9B0EEBF
:10C1F000407B9FED0D6B27EE065B3B6807EE903AA8
:10C20000B8EEE76B85EE067BF7EEC77B0A4BC3ED16
:10C210000C7A00BF4037BD4680BD00BFAFF3008041
:10C220004AD8124DFB2119400000000000408F4009
:10C2300000606A46003C19461C0200200000000015
:10C240002DE9F04F2DED028BBBB000AF7867396759
:10C250001346A7F86E306B461E46B7F86E100B46B5
:10C26000013BC7F8D0308BB200221C4615464FF078
:10C2700000024FF000036B0143EAD46362018BB20A
:10C280000022984691464FF000024FF000034FEA1B
:10C29000491343EAD8634FEA48120B469B00073321
:10C2A000DB08DB00ADEB030D6B4603339B089B0003
:10C2B000C7F8D430B7F86E100B46013BC7F8D8303A
:10C2C0008BB200229A4693464FF000024FF00003D3
:10C2D0004FEA4B1343EADA634FEA4A128BB2002269
:10C2E0003B667A664FF000024FF00003D7E918452D
:10C2F00028464301204643EAD063204642010B46CC
:10C300009B000733DB08DB00ADEB030D6B4603330B
:10C310009B089B00C7F8DC30B7F86E100B46013B5A
:10C32000C7F8E0308BB20022BB65FA654FF000021F
:10C330004FF00003D7E9164528464301204643EA5B
:10C34000D063204642018BB200223B657A654FF0F4
:10C3500000024FF00003D7E9144528464301204668
:10C3600043EAD063204642010B469B000733DB08BB
:10C37000DB00ADEB030D6B4603339B089B00C7F856
:10C38000E430B7F86E100B46013BC7F8BC308BB2F7
:10C390000022BB64FA644FF000024FF00003D7E9BB
:10C3A000124528464301204643EAD0632046420115
:10C3B0008BB200223B647A644FF000024FF000031E
:10C3C000D7E9104528464301204643EAD06320467A
:10C3D00042010B469B000733DB08DB00ADEB030D8E
:10C3E0006B4603339B089B00C7F8B830642387F87B
:10C3F000B73097F8B7100B46013BC7F8B030CBB257
:10C400000022BB63FA634FF000024FF00003D7E94C
:10C410000E4528464301204643EAD06320464201A8
:10C42000CBB200223B637A634FF000024FF000036F
:10C43000D7E90C4528464301204643EAD06320460D
:10C4400042010B469B000733DB08DB00ADEB030D1D
:10C450006B4603339B089B00C7F8AC3097F8B710C6
:10C460000B46013BC7F8A830CBB20022BB62FA6290
:10C470004FF000024FF00003D7E90A452846430178
:10C48000204643EAD06320464201CBB200223B6201
:10C490007A624FF000024FF00003D7E908452846C2
:10C4A0004301204643EAD063204642010B469B00ED
:10C4B0000733DB08DB00ADEB030D6B4603339B0852
:10C4C0009B00C7F8A43097F8B7100B46013BC7F89C
:10C4D000A030CBB20022BB61FA614FF000024FF0F6
:10C4E0000003D7E9064528464301204643EAD063C6
:10C4F00020464201CBB200223B617A614FF000023C
:10C500004FF00003D7E9044528464301204643EA9B
:10C51000D063204642010B469B000733DB08DB005B
:10C52000ADEB030D6B4603339B089B00C7F89C30B3
:10C5300097F8B7100B46013BC7F89830CBB20022F2
:10C54000BB60FA604FF000024FF00003D7E90245EC
:10C5500028464301204643EAD06320464201CBB23D
:10C5600000223B607A604FF000024FF00003D7E9F1
:10C57000004528464301204643EAD0632046420155
:10C580000B469B000733DB08DB00ADEB030D6B466E
:10C5900003339B089B00C7F894300023A7F8C830EA
:10C5A0004EE0B7F8C8309B007A6F1A44B7F8C8302D
:10C5B0001268D7F8D4109B000B441A60B7F8C83043
:10C5C0009B003A6F1A44B7F8C8301268D7F8DC10ED
:10C5D0009B000B441A60B7F8C83007EE903AB8EEEB
:10C5E000E77B9FEDB16B27EE066BB2EE045B86EE48
:10C5F000057BB7F8C830F7EEC77BD7F8E4209B007F
:10C600001344C3ED007AB7F8C83007EE903AB8EE9D
:10C61000E77B9FEDA56B27EE066BB2EE045B86EE23
:10C62000057BB7F8C830F7EEC77BD7F8B8209B007A
:10C630001344C3ED007AB7F8C8300133A7F8C83007
:10C64000B7F8C820B7F86E309A42AAD3B7F86E3060
:10C65000013B0022D7F8E410D7F8D40000F03EFAEE
:10C66000B7F86E30013B0022D7F8B810D7F8DC00DD
:10C6700000F034FA0023A7F8CA306CE0B7F8CA20FB
:10C68000B7F8CA30D7F8D41092000A441268D7F825
:10C69000AC109B000B441A60B7F8CA20B7F8CA3038
:10C6A000D7F8DC1092000A441268D7F8A4109B0057
:10C6B0000B441A60B7F8CA20B7F8CA30D7F8E410AC
:10C6C00092000A441268D7F89C109B000B441A6031
:10C6D000B7F8CA20B7F8CA30D7F8B81092000A44A1
:10C6E0001268D7F894109B000B441A60B7F8CA3050
:10C6F000D7F8AC209B00134493ED007AB7F8CA300A
:10C70000D7F8A4209B001344D3ED007A77EE277A64
:10C7100097ED307A77EE277AC7ED307AB7F8CA30DE
:10C72000D7F89C209B00134493ED007AB7F8CA30E9
:10C73000D7F894209B001344D3ED007A77EE277A44
:10C7400097ED317A77EE277AC7ED317AB7F8CA30AC
:10C750000133A7F8CA3097F8B7309BB2B7F8CA20B0
:10C760009A428BD397F8B7305B0007EE903AB8EE59
:10C77000E77AD7ED306AC6EE877AC7ED247A97F864
:10C78000B7305B0007EE903AB8EEE77AD7ED316A42
:10C79000C6EE877AC7ED237A0023A7F8CC3054E0A1
:10C7A000B7F8CC30D7F8AC209B00134493ED007A57
:10C7B000B7F8CC30D7ED247A77EE677AD7F8AC208B
:10C7C0009B001344C3ED007AB7F8CC30D7F8A4200F
:10C7D0009B00134493ED007AB7F8CC30D7ED247A60
:10C7E00077EE677AD7F8A4209B001344C3ED007A54
:10C7F000B7F8CC30D7F89C209B00134493ED007A17
:10C80000B7F8CC30D7ED237A77EE677AD7F89C204B
:10C810009B001344C3ED007AB7F8CC30D7F89420CE
:10C820009B00134493ED007AB7F8CC30D7ED237A10
:10C8300077EE677AD7F894209B001344C3ED007A13
:10C84000B7F8CC300133A7F8CC3097F8B7309BB2AB
:10C85000B7F8CC209A42A3D397F8B730013B002217
:10C86000D7F8AC10D7F89C0000F0EAF997F8B73089
:10C87000013B0022D7F8A410D7F8940000F0E0F9AB
:10C880004FF00003C7F888304FF00003C7F884303A
:10C890004FF00003C7F880304FF00003FB67002320
:10C8A000A7F8CE30BFE000BF48E17A14AE470D4094
:10C8B000B7F8CE30D7F8AC209B00134493ED007A44
:10C8C000B7F8CE30D7F8A4209B001344D3ED007AFC
:10C8D00027EE277AB7F8CE30D7F89C209B00134478
:10C8E000D3ED006AB7F8CE30D7F894209B001344FC
:10C8F000D3ED007A66EEA77A77EE277AC7ED207A35
:10C90000B7F8CE30D7F8AC209B00134493ED007AF3
:10C91000B7F8CE30D7F8AC209B001344D3ED007AA3
:10C9200027EE277AB7F8CE30D7F89C209B00134427
:10C93000D3ED006AB7F8CE30D7F89C209B001344A3
:10C94000D3ED007A66EEA77A77EE277AC7ED227AE2
:10C95000B7F8CE30D7F8A4209B00134493ED007AAB
:10C96000B7F8CE30D7F8A4209B001344D3ED007A5B
:10C9700027EE277AB7F8CE30D7F894209B001344DF
:10C98000D3ED006AB7F8CE30D7F894209B0013445B
:10C99000D3ED007A66EEA77A77EE277AC7ED217A93
:10C9A000D7ED227AB7EEE77AB0EE470B10F000FE33
:10C9B000B0EE408BD7ED217AB7EEE77AB0EE470BB9
:10C9C00010F0F6FDB0EE407B28EE077BF7EEC77B5C
:10C9D000C7ED1F7AD7ED206A97ED1F7AC6EE877AEA
:10C9E000F5EEC07AF1EE10FA0AD5374BD3ED007AA6
:10C9F0009FED367A77EE877A334BC3ED007A0DE000
:10CA0000D7ED206AD7ED1F7A86EEA77A2E4BD3EDAD
:10CA1000007A77EE277A2C4BC3ED007AB7F8CE3048
:10CA20000133A7F8CE3097F8B7309BB2B7F8CE20D5
:10CA30009A42FFF43DAF244BD3ED006A97F8B7302C
:10CA400007EE903AB8EEE77AC6EE877A1E4BC3ED52
:10CA5000007A1F4B1B8840F20132934211D81C4BC5
:10CA60001B8801339AB21A4B1A801A4B93ED007A45
:10CA7000154BD3ED007A77EE277A164BC3ED007A8B
:10CA800014E0144BD3ED006A114B1B8807EE903A6B
:10CA9000B8EEE77AC6EE877A0F4BC3ED007A0D4BFE
:10CAA0004FF000021A600A4B00221A800A4B1B68E2
:10CAB000B54607EE903AB0EE670AEC37BD46BDECDE
:10CAC000028BBDE8F08F00BF54060020000000007C
:10CAD0004C060020580600205006002080B588B083
:10CAE00000AFF860B9607A603B607A683B689A4250
:10CAF00080F2A2803B687B617B68FB613B68BB6125
:10CB00005CE0FB690133FB61FB699B00FA6813443D
:10CB100093ED007A7B699B00FA681344D3ED007AA9
:10CB2000B4EEE77AF1EE10FA03DDFA693B689A4257
:10CB3000E7DB02E0BB69013BBB61BB699B00FA68B4
:10CB4000134493ED007A7B699B00FA681344D3ED9C
:10CB5000007AB4EEE77AF1EE10FAEBD9FA69BB6924
:10CB60009A422BDAFB699B00FA6813441B683B610D
:10CB7000BB699B00FA681A44FB699B00F9680B4487
:10CB800012681A60BB699B00FA6813443A691A601C
:10CB9000FB699B00BA6813441B683B61BB699B003F
:10CBA000BA681A44FB699B00B9680B4412681A60A2
:10CBB000BB699B00BA6813443A691A60FA69BB6999
:10CBC0009A42A1DB7B699B00FA6813441B683B61B6
:10CBD000FB699B00FA681A447B699B00F9680B4467
:10CBE00012681A60FB699B00FA6813443A691A607C
:10CBF0007B699B00BA6813441B683B61FB699B001F
:10CC0000BA681A447B699B00B9680B4412681A60C1
:10CC1000FB699B00BA6813443A691A60FB69013BDF
:10CC20007A68B968F868FFF759FFFB695A1C3B68D6
:10CC3000B968F868FFF752FF00BF2037BD4680BDD6
:10CC400080B588B000AFF860B9607A603B607A6800
:10CC50003B689A4280F2A2807B687B617B68FB61C3
:10CC60003B68BB615CE0FB690133FB61FB699B00D6
:10CC7000FA68134493ED007A7B699B00FA681344C9
:10CC8000D3ED007AB4EEE77AF1EE10FA03D8FA6940
:10CC90003B689A42E7DB02E0BB69013BBB61BB69D1
:10CCA0009B00FA68134493ED007A7B699B00FA6855
:10CCB0001344D3ED007AB4EEE77AF1EE10FAEBDC30
:10CCC000FA69BB699A422BDAFB699B00FA68134444
:10CCD0001B683B61BB699B00FA681A44FB699B00B7
:10CCE000F9680B4412681A60BB699B00FA68134428
:10CCF0003A691A60FB699B00BA6813441B683B6180
:10CD0000BB699B00BA681A44FB699B00B9680B4475
:10CD100012681A60BB699B00BA6813443A691A60CA
:10CD2000FA69BB699A42A1DB7B699B00FA681344EC
:10CD30001B683B61BB699B00FA681A447B699B00D6
:10CD4000F9680B4412681A60BB699B00FA681344C7
:10CD50003A691A607B699B00BA6813441B683B619F
:10CD6000BB699B00BA681A447B699B00B9680B4495
:10CD700012681A60BB699B00BA6813443A691A606A
:10CD8000BB69013B7A68B968F868FFF759FFBB696E
:10CD90005A1C3B68B968F868FFF752FF00BF20379C
:10CDA000BD4680BD80B483B000AF0346FB710E4B1F
:10CDB0001B680D4A23F004031360FB79DB08DAB229
:10CDC0000A4B1A70094B1B789BB21A465201D21AB1
:10CDD00092001344DB009AB2054B1A8000BF0C3757
:10CDE000BD465DF8047B704710E000E05C06002063
:10CDF0005E06002080B485B000AF0346FB80FB8850
:10CE0000144A12881146144A01FB03F35360124B73
:10CE100000229A60104B1B680F4A43F00103136015
:10CE20000D4B1B68FB60FB6803F00103002B04D073
:10CE3000FB6803F48033002BF2D0074B00221A600A
:10CE4000054B00229A6000BF1437BD465DF8047B95
:10CE5000704700BF5E06002010E000E080B485B09F
:10CE600000AF7860144B1B781946144A7B6801FBAD
:10CE700003F35360114B00229A60104B1B680F4A5A
:10CE800043F0010313600D4B1B68FB60FB6803F06C
:10CE90000103002B04D0FB6803F48033002BF2D095
:10CEA000064B00221A60054B00229A6000BF14371F
:10CEB000BD465DF8047B70475C06002010E000E092
:10CEC00080B400AF034B1E221A6000BFBD465DF860
:10CED000047B70476006002080B483B000AF7860A8
:10CEE000094B1B687A6802FB03F30A3B7B6000BFB7
:10CEF0007B685A1E7A60002BFAD100BF00BF0C3746
:10CF0000BD465DF8047B70476006002080B483B0A6
:10CF100000AF78600B4B1B687A6802FB03F34FF499
:10CF20007A7202FB03F30A3B7B6000BF7B685A1EE8
:10CF30007A60002BFAD100BF00BF0C37BD465DF808
:10CF4000047B70476006002080B5ADF5804D82B04F
:10CF500000AF42F208033B44254A043B11464FF41C
:10CF6000005218460BF016FD07F10803214A043B56
:10CF700011464FF4005218460BF00CFD4FF40063BD
:10CF800044F204023A441380002344F206023A4475
:10CF900013801BE044F206033B441A8844F2060364
:10CFA0003B441B8842F20801394492000A44043A87
:10CFB000126811499B000B441A6044F206033B447B
:10CFC0001B88013344F206023A44138044F20603FC
:10CFD0003B441A8844F204033B441B889A42D9D349
:10CFE00000BF00BF07F580470837BD4680BD00BFC2
:10CFF00078D7010878F701086406002080B485B06E
:10D0000000AFF860B9607A60FB68074A1A60BB68D5
:10D01000064A1A607B6880221A6000BF1437BD463A
:10D020005DF8047B704700BF64260020B82600200E
:10D0300080B485B000AFF860B9607A60FB68074AD9
:10D040001A60BB68064A1A607B684FF480721A60E7
:10D0500000BF1437BD465DF8047B7047B828002038
:10D060000C29002080B584B004AF4FF47A7302938A
:10D070004FF480730193054B009302230022A121FA
:10D08000034803F0DDFF00BFBD4680BDC86F002030
:10D090000C2D002080B500AF054B00225A60012204
:10D0A0000449054806F08EFE62B600BF00BF80BD91
:10D0B000E0700020882F00208C2E002080B400AF6C
:10D0C000074B4FF480521A60064B00221A60044B43
:10D0D0001B68044A536000BFBD465DF8047B70477F
:10D0E000B42F0020BC2F002080B400AF0D4B4FF4B4
:10D0F0007A721A600B4B0A225A600A4B4FF47A720A
:10D100009A60084B0A22DA60064B41F288321A61B3
:10D11000044B4FF47A725A6100BFBD465DF8047B40
:10D12000704700BF2073002080B500AFD820FFF704
:10D1300039FEFFF7C5FE00BF80BD000080B582B09C
:10D1400000AFFE20FEF782FA0A20FFF753FE01200F
:10D15000FFF7C2FEFEF754FB0020FEF7CFFAE020F7
:10D16000FEF794FAFEF7F6FA03461A461D4B1A70BC
:10D170004FF4FA70FFF73EFE1B4B7B601B4B3B608E
:10D180003B793A7811461846FEF748FA0F20FFF728
:10D1900065FEFC20FEF75AFA0A20FFF75FFE00202A
:10D1A000FEF754FA0F20FFF759FEFEF7B5FA0022FA
:10D1B00010210F4803F068FE322301220D490E486A
:10D1C00005F095FD1920FFF715FE0C4B03F5804384
:10D1D00001221A720120FFF741FE00BF0837BD4649
:10D1E00080BD00BF8E2F002000020406010305074A
:10D1F0000000024004000020682D0020BC2F002009
:10D20000B0B598B000AF02F002FF00F093F800F064
:10D21000FBF900F0CBF900F05BF900F097F900F0B2
:10D22000F9F800F037F901224021374803F02CFECD
:10D23000FFF730FFFFF742FFFFF756FFFFF774FFDE
:10D24000FFF710FFFFF77AFFFFF77EFE0023BB65B5
:10D250000023FB6507F158030121184608F0DEF9A9
:10D2600003462A4A136000233B6500237B6507F1D0
:10D2700050030121184608F0D1F90346244A1360EF
:10D28000244BBB640023FB6407F148030022012107
:10D29000184608F08FF903461F4A13601F4B07F129
:10D2A00038040FCB84E80F0007F13803002118463B
:10D2B00008F0E6F903461A4A13601A4B07F11C04FA
:10D2C0001D460FCD0FC495E8070084E8070007F15D
:10D2D0001C030021184608F020F90346124A136087
:10D2E000124B3C461D460FCD0FC495E8070084E85D
:10D2F00007003B460021184608F00FF903460C4A88
:10D30000136008F003F9FEE700040240802F0020BC
:10D31000842F002025E200087C2F002090170208AF
:10D32000782F0020A0170208702F0020BC170208D9
:10D33000742F002080B594B000AF07F11C03342295
:10D34000002118460BF034FB07F1080300221A6095
:10D350005A609A60DA601A612C4B1B6C2B4A43F0BE
:10D3600080531364294B1B6C03F080537B607B68F4
:10D37000274B1B68264A43F440431360244B1B6829
:10D3800003F440433B603B680A23FB610123BB621B
:10D390001023FB6201233B6302237B630023BB63F7
:10D3A0000823FB63D8233B6402237B640223BB6412
:10D3B0000223FB6407F11C03184604F0F3FA03464A
:10D3C000002B01D000F044FF04F09CFA0346002B30
:10D3D00001D000F03DFF0F23BB600223FB60002360
:10D3E0003B614FF4A0537B614FF48053BB6107F165
:10D3F00008030721184604F083FD0346002B01D0E3
:10D4000000F026FF00BF5037BD4680BD0038024007
:10D410000070004080B500AF1B4B1C4A1A601A4BCD
:10D420001B4A5A60184B08229A60174B0122DA6097
:10D43000154B00221A61144B00225A61124B002234
:10D440009A61114B4FF40022DA610F4B00221A62ED
:10D450000D4803F065FD0346002B01D000F0F8FEF7
:10D460000021094804F058F90346002B01D000F0D0
:10D47000EFFE0021044804F09AF90346002B01D086
:10D4800000F0E6FE00BF80BD0C2D002000580040DB
:10D490006847402080B500AF0B4B0C4A1A600A4B1E
:10D4A00005225A60084B40F6FF72DA60064B40F6E0
:10D4B00018429A60044804F0C6F90346002B01D0D4
:10D4C00000F0C6FE00BF80BD582D00200030004097
:10D4D00080B500AF1B4B1C4A1A601A4B4FF4827286
:10D4E0005A60184B00229A60164B4FF4E062DA60E3
:10D4F000144B00221A61134B01225A61114B4FF455
:10D5000000729A610F4B2822DA610E4B00221A62D8
:10D510000C4B00225A620B4B00229A62094B0722E5
:10D52000DA62084B00221A63064B00225A63054850
:10D5300005F032FB0346002B01D000F089FE00BF4E
:10D5400080BD00BF682D00200030014080B500AFD5
:10D55000144B154A1A60134B4FF4E1325A60114BC9
:10D5600000229A600F4B0022DA600E4B00221A61F3
:10D570000C4B0C225A610B4B00229A61094B002282
:10D58000DA61084B00221A62064B00225A620548F3
:10D5900006F0CAFB0346002B01D000F059FE00BF85
:10D5A00080BD00BF8C2E00200014014080B582B0E9
:10D5B00000AF144B1B6B134A43F480031363114BEE
:10D5C0001B6B03F480037B607B68002205213820FD
:10D5D00002F055FE382002F06EFE002205213B20AD
:10D5E00002F04DFE3B2002F066FE002205214520A0
:10D5F00002F045FE452002F05EFE00BF0837BD4642
:10D6000080BD00BF0038024080B58AB000AF07F18E
:10D61000140300221A605A609A60DA601A61424B61
:10D620001B6B414A43F0010313633F4B1B6B03F039
:10D6300001033B613B693C4B1B6B3B4A43F00203DC
:10D640001363394B1B6B03F00203FB60FB68364B23
:10D650001B6B354A43F008031363334B1B6B03F01A
:10D660000803BB60BB68304B1B6B2F4A43F00403BD
:10D6700013632D4B1B6B03F004037B607B6800225C
:10D6800010212A4803F000FC00224FF440512848A2
:10D6900003F0FAFB00224021264803F0F5FB0823A3
:10D6A0007B614FF40413BB610023FB6107F114039A
:10D6B00019461E4803F024FA10237B610123BB6145
:10D6C0000123FB6103233B6207F11403194617484A
:10D6D00003F016FA4FF440537B610123BB61002332
:10D6E000FB6100233B6207F114031946104803F065
:10D6F00007FA40237B610123BB610023FB61002308
:10D700003B6207F1140319460A4803F0F9F90022B5
:10D710000521092002F0B3FD092002F0CCFD00BF75
:10D720002837BD4680BD00BF0038024000000240DF
:10D73000000C02400004024080B584B000AF0346F4
:10D74000FB80FB88082B40F08380434B1B78032B26
:10D750007ED1424B03F580431B7A012B78D1404B9D
:10D760001B78002B74D13F4B1B78002B70D1032307
:10D770003D4A3E493E4805F03BFE3B4B1B781B04AF
:10D7800003F47F033B4A1360374B5B781A02394B33
:10D790001B681343374A1360334B9B781A46354B4B
:10D7A0001B681343334A1360324B1B6803F40003B6
:10D7B000002B06D02F4B1B6843F07F431A462D4B9E
:10D7C0001A602C4B1B6807EE903AF8EEE77A2A4B6A
:10D7D000C3ED007A284B93ED007ADFED286AC7EE9F
:10D7E000267A254BC3ED007A1C4B1B68224A12682F
:10D7F0001A4902339B000B441A60184B1B68013313
:10D80000164A1360154B1A68144B5B689A421FD175
:10D810000023FB601A4B1B6807F10C0211461846E7
:10D8200008F0FEFAFB68012B0AD1FB68002B07D039
:10D83000144B4FF080521A60BFF34F8FBFF36F8FBE
:10D84000064B00221A604FF400510F4803F035FBDD
:10D8500000BF1037BD4680BD8E2F0020BC2F00209A
:10D860008C2F00203C7301209C2F00200000002002
:10D87000682D0020942F0020902F0020C8CCCC4988
:10D88000802F002004ED00E0000C024080B584B041
:10D8900000AF7860274B5B685A1C26494A60264ACD
:10D8A0001178244A13440A4683F8A021224B1B789E
:10D8B0000A2B20D11F4B00225A6007221F49204803
:10D8C000FEF7C4F80346FB73FB7B002B0AD0194B11
:10D8D00001225A70174B00221A701A497868FDF716
:10D8E000CDFF08E01648FAF70BFD03461A46002163
:10D8F00013480BF05DF80F4B5B680E2B0BDD0D4BE7
:10D9000000225A600E48FAF7FBFC03461A46002133
:10D910000B480BF04DF800BF01220749786806F06C
:10D9200051FA0346002BF7D000BF00BF1037BD46A9
:10D9300080BD00BFE0700020882F0020D8170208AB
:10D94000807200201C02002080B584B000AF786097
:10D950004FF4FA73FB60134B1B68F968184608F024
:10D96000DBFB0346012BF6D10F4B1B78002BF2D1CA
:10D970000E4B1868002300220D4908F0ABF8B86080
:10D980000A4B1B68184608F0DBFC0346094A136083
:10D99000BB68012BDFD1084B1B68184609F0DAF889
:10D9A000D9E700BF802F00208C2F0020782F002087
:10D9B0001400002038730020742F002000000000A5
:10D9C00080B58EB000AF7860414B1B68184608F0F8
:10D9D000B7FC03463F4A13603E4B1B68002B00F028
:10D9E0000E843B4B1B6864223B49184608F0AEFA94
:10D9F000F862374B1B68184608F0A2FC0346354A0C
:10DA00001360364803F06EFF4FF480400AF0B2FD19
:10DA1000B862334B01221A7000237B6322E02E4B45
:10DA20001A687B6B9B001A447B6B9B00B96A0B44A2
:10DA300012681A60284B1A687B6B9B001A447B6B38
:10DA40005B00126827499B000B441A607B6B5B00EC
:10DA50000133244A9B0013444FF000021A607B6B91
:10DA600001337B63204B1B687A6B9A42D7D3FB6AE6
:10DA7000012BA9D11D4B1B68DAB21D4B1B68DBB211
:10DA800018491C48FCF709FD1B4B1B681A461B492B
:10DA90001448FBF725F840F26763FB84FB8C1A46B9
:10DAA00016491748FEF7CCFBF0EE407A154BC3ED54
:10DAB000367A154B154A4FF400611048FBF7BCF855
:10DAC000114B1B68002B23D10F4B1B68013321E046
:10DAD000782F0020387300203CB30020582D002000
