:020000040800F2
:1080000000000820C5F3000875F1000883F100089E
:1080100089F100088FF1000895F1000800000000C8
:10802000000000000000000000000000E16A0108FC
:108030009BF1000800000000F16C0108A9F10008A4
:1080400015F4000815F4000815F4000815F40008EC
:1080500015F4000815F4000815F4000815F40008DC
:1080600015F40008C3F1000815F4000815F4000821
:1080700015F4000815F4000815F4000815F40008BC
:1080800015F4000815F4000815F4000815F40008AC
:1080900015F4000815F4000815F4000815F400089C
:1080A00015F4000815F4000815F4000815F400088C
:1080B00015F4000815F4000815F4000815F400087C
:1080C00015F4000815F4000815F4000815F400086C
:1080D00015F4000815F4000815F4000815F400085C
:1080E00015F4000815F4000815F4000815F400084C
:1080F00015F4000815F4000815F4000815F400083C
:1081000015F4000815F4000815F4000815F400082B
:1081100015F4000815F4000815F4000815F400081B
:10812000D1F1000815F4000815F40008E5F1000885
:1081300015F4000815F4000815F4000815F40008FB
:1081400015F4000815F4000815F4000815F40008EB
:1081500015F40008F9F1000815F400080DF2000804
:1081600015F4000815F4000815F4000815F40008CB
:1081700015F4000815F4000815F4000800000000CC
:1081800015F4000815F4000815F4000815F40008AB
:1081900015F4000815F4000815F4000815F400089B
:1081A00015F4000815F4000815F4000815F400088B
:1081B00015F4000815F4000815F4000815F400087B
:1081C00015F4000815F400080000000015F400087C
:1081D00015F4000815F4000815F4000815F400085B
:1081E00015F4000815F4000815F4000815F400084B
:0881F00015F4000815F4000865
:1082000010B5054C237833B9044B13B10448AFF3D0
:1082100000800123237010BD000200200000000038
:1082200010C1010808B5034B1BB103490348AFF364
:10823000008008BD000000000402002010C10108F9
:108240004B1C012B98BF70472DE9F003911C9B0834
:10825000B1F80480B1F802900A8831F802CC804469
:10826000814402448444D9F80070D8F8006015684D
:10827000DCF80040C9F80060C8F80070CCF8005085
:108280001460D9F80470D8F804605568DCF804402C
:10829000C9F80460C8F80470CCF804505460083180
:1082A000013BD5D1BDE8F00370474B1C012B98BFB3
:1082B00070472DE9F003911C9B08B1F80480B1F8D8
:1082C00002900A8831F802CC00EB580800EB5909FB
:1082D00000EB520200EB5C0CD9F80070D8F800609B
:1082E0001568DCF80040C9F80060C8F80070CCF8E8
:1082F000005014600831013BDFD1BDE8F003704746
:10830000034613F8012B002AFBD1181A01387047D5
:1083100001F0FF01102A2BDB10F0070F08D010F836
:10832000013B013A8B422DD010F0070F42B3F6D13A
:10833000F0B441EA012141EA014122F007047FF053
:1083400000070023F0E80256083C85EA010586EAAA
:10835000010685FA47F5A3FA87F586FA47F6A5FAE6
:1083600087F68EB9EED1F0BC01F0FF0102F00702F2
:1083700032B110F8013B013A83EA010313B1F8D19D
:108380000020704701387047002D06BF354603387E
:10839000073815F0010F07D1013015F4807F02BFB7
:1083A000013015F4C03F0130F0BC0138704700BF08
:1083B00081F0004102E000BF83F0004330B54FEA96
:1083C00041044FEA430594EA050F08BF90EA020F03
:1083D0001FBF54EA000C55EA020C7FEA645C7FEA96
:1083E000655C00F0E2804FEA5454D4EB5555B8BFB9
:1083F0006D420CDD2C4480EA020281EA030382EA2A
:10840000000083EA010180EA020281EA0303362DBB
:1084100088BF30BD11F0004F4FEA01314FF4801C8E
:108420004CEA113102D0404261EB410113F0004FA0
:108430004FEA03334CEA133302D0524263EB430357
:1084400094EA050F00F0A780A4F10104D5F1200EF5
:108450000DDB02FA0EFC22FA05F2801841F1000150
:1084600003FA0EF2801843FA05F359410EE0A5F124
:1084700020050EF1200E012A03FA0EFC28BF4CF055
:10848000020C43FA05F3C01851EBE37101F000450B
:1084900007D54FF0000EDCF1000C7EEB00006EEB18
:1084A0000101B1F5801F1BD3B1F5001F0CD34908A2
:1084B0005FEA30004FEA3C0C04F101044FEA4452F9
:1084C00012F5800F80F09A80BCF1004F08BF5FEA80
:1084D000500C50F1000041EB045141EA050130BD60
:1084E0005FEA4C0C404141EB0101013C28BFB1F572
:1084F000801FE9D291F0000F04BF01460020B1FABD
:1085000081F308BF2033A3F10B03B3F120020CDA8F
:108510000C3208DD02F1140CC2F10C0201FA0CF06D
:1085200021FA02F10CE002F11402D8BFC2F1200CD2
:1085300001FA02F120FA0CFCDCBF41EA0C01904088
:10854000E41AA2BF01EB0451294330BD6FEA0404D1
:108550001F3C1CDA0C340EDC04F11404C4F12002BC
:1085600020FA04F001FA02F340EA030021FA04F3CE
:1085700045EA030130BDC4F10C04C4F1200220FA25
:1085800002F001FA04F340EA0300294630BD21FA63
:1085900004F0294630BD94F0000F83F4801306BF29
:1085A00081F480110134013D4EE77FEA645C18BF1D
:1085B0007FEA655C29D094EA050F08BF90EA020FB4
:1085C00005D054EA000C04BF1946104630BD91EAAC
:1085D000030F1EBF0021002030BD5FEA545C05D1AF
:1085E0004000494128BF41F0004130BD14F58004EE
:1085F0003CBF01F5801130BD01F0004545F0FE4162
:1086000041F470014FF0000030BD7FEA645C1ABF96
:10861000194610467FEA655C1CBF0B46024650EACD
:10862000013406BF52EA033591EA030F41F40021F9
:1086300030BD00BF90F0000F04BF0021704730B57F
:108640004FF4806404F132044FF000054FF0000154
:1086500050E700BF90F0000F04BF0021704730B515
:108660004FF4806404F1320410F0004548BF4042EA
:108670004FF000013EE700BF42004FEAE2014FEA3F
:1086800031014FEA02701FBF12F07F4393F07F4F1A
:1086900081F06051704732F07F4208BF704793F01D
:1086A0007F4F04BF41F40021704730B54FF4607430
:1086B00001F0004521F000411CE700BF50EA010233
:1086C00008BF704730B54FF000050AE050EA0102DC
:1086D00008BF704730B511F0004502D5404261EB4C
:1086E00041014FF4806404F132045FEA915C3FF48D
:1086F000D8AE4FF003025FEADC0C18BF03325FEA2A
:10870000DC0C18BF033202EBDC02C2F1200300FADA
:1087100003FC20FA02F001FA03FE40EA0E0021FAFF
:1087200002F11444BDE600BF53B94AB9002908BF9D
:1087300000281CBF4FF0FF314FF0FF3000F0A6B90A
:10874000ADF1080C6DE904CE00F03EF8DDF804E070
:10875000DDE9022304B0704708B502460B4643EC3E
:10876000172BB5EEC07BF1EE10FA03D4BDE808403C
:1087700000F00AB8B1EE477B51EC170B00F004F89B
:10878000404261EB410108BD9FED0B6B41EC170BC3
:108790009FED0B5B27EE066BBCEEC66BB8EE464B4F
:1087A000A4EE457BFCEEC77B16EE101A17EE900A7E
:1087B000704700BFAFF30080000000000000F03DF4
:1087C000000000000000F0412DE9F047089D04463C
:1087D0008C46002B40F083808A42174647D9B2FA74
:1087E00082F242B1C2F1200024FA00F09140974099
:1087F00040EA010C94404FEA1748230CBCFBF8F602
:108800001FFA87FE08FB16C143EA014306FB0EF17F
:10881000994209D9FB1806F1FF3080F0198199427D
:1088200040F21681023E3B445B1AA4B2B3FBF8F05F
:1088300008FB103344EA034400FB0EFEA64509D9A9
:108840003C1900F1FF3380F00581A64540F202811A
:1088500002383C4440EA0640A4EB0E0400261DB159
:10886000D4400023C5E900433146BDE8F08702B992
:10887000FFDEB2FA82F2002A50D1CB1B4FEA174E2C
:108880001FFA87F80126B3FBFEFC210C0EFB1C33FC
:1088900041EA034108FB0CF38B4207D979180CF12C
:1088A000FF3002D28B4200F2E9808446C91AA3B29B
:1088B000B1FBFEF00EFB101143EA014408FB00F887
:1088C000A04507D93C1900F1FF3302D2A04500F2C0
:1088D000D9801846A4EB080440EA0C40BFE78B425D
:1088E00009D9002D00F0B1800026C5E9000130460D
:1088F0003146BDE8F087B3FA83F6002E4AD18B42A9
:1089000002D3824200F2B880841A61EB0301012095
:108910008C46002DA8D0C5E9004CA5E7C2F1200384
:1089200020FA03F6974001FA02F04FEA174ED940B9
:108930003043030CB1FBFEF61FFA87F80EFB16114D
:1089400043EA014306FB08F1994204FA02F409D90B
:10895000FB1806F1FF3C80F08D80994240F28A803E
:10896000023E3B445B1A81B2B3FBFEF00EFB1033B8
:1089700041EA034100FB08F38B4207D9791800F163
:10898000FF3C73D28B4271D902383944CB1A40EA8A
:10899000064678E7C6F1200C03FA06F422FA0CF337
:1089A0001C4320FA0CF701FA06F34FEA144E21FAA1
:1089B0000CF11F433B0CB1FBFEF91FFA84F80EFBD0
:1089C000191143EA014109FB08FA8A4502FA06F245
:1089D00000FA06F308D9611809F1FF3048D28A4538
:1089E00046D9A9F102092144A1EB0A01BFB2B1FBAA
:1089F000FEF00EFB101147EA014700FB08F8B845EE
:108A000007D9E71900F1FF312ED2B8452CD9023829
:108A1000274440EA0940A7EB0807A0FB02894F451D
:108A2000C64649461AD317D05DB1B3EB0E0267EBC9
:108A3000010707FA0CFCF2404CEA0202F740C5E9D4
:108A4000002700263146BDE8F0872E4628460BE772
:108A50000646E9E61846FDE64345E5D2B8EB020EC8
:108A600069EB04010138DFE70846D2E760468DE78D
:108A70008146B9E7664675E730464AE7ACF1020C35
:108A8000394413E702383C4424E700BF704700BF75
:108A900080B582B000AF87ED010A3860D7ED017A6A
:108AA000F5EEC07AF1EE10FA0ADB97ED010A13F049
:108AB00091FAF0EE407A3B68C3ED007A002305E0BE
:108AC0003B684FF000021A604FF0FF33184608373A
:108AD000BD4680BD80B588B000AFF860B9607A60EF
:108AE0007B689B08FB6172E0FB681A1DFA601B68DB
:108AF000BB61FB681A1DFA601B687B61D7ED067AC3
:108B000027EEA77AD7ED057A67EEA77A77EE277A70
:108B1000BB681A1DBA601846B0EE670AFFF7B8FFC7
:108B2000FB681A1DFA601B68BB61FB681A1DFA60BE
:108B30001B687B61D7ED067A27EEA77AD7ED057A19
:108B400067EEA77A77EE277ABB681A1DBA601846D7
:108B5000B0EE670AFFF79CFFFB681A1DFA601B68FE
:108B6000BB61FB681A1DFA601B687B61D7ED067A52
:108B700027EEA77AD7ED057A67EEA77A77EE277A00
:108B8000BB681A1DBA601846B0EE670AFFF780FF8F
:108B9000FB681A1DFA601B68BB61FB681A1DFA604E
:108BA0001B687B61D7ED067A27EEA77AD7ED057AA9
:108BB00067EEA77A77EE277ABB681A1DBA60184667
:108BC000B0EE670AFFF764FFFB69013BFB61FB69DD
:108BD000002B89D17B6803F00303FB611EE0FB6877
:108BE0001A1DFA601B68BB61FB681A1DFA601B68DE
:108BF0007B61D7ED067A27EEA77AD7ED057A67EE87
:108C0000A77A77EE277ABB681A1DBA601846B0EECD
:108C1000670AFFF73DFFFB69013BFB61FB69002B26
:108C2000DDD100BF00BF2037BD4680BD80B48BB012
:108C300000AFF860B9607A603B600023BB6100233D
:108C4000FB61FB681A1DFA601B687B62BB68013B15
:108C50009B083B6251E0FB681A1DFA601B687B6150
:108C6000FB681A1DFA601B683B6197ED097AD7ED26
:108C7000057AB4EEE77AF1EE10FA04D57B697B62EF
:108C8000BB690133FB61FB681A1DFA601B687B61DD
:108C900097ED097AD7ED047AB4EEE77AF1EE10FA9F
:108CA00004D53B697B62BB690233FB61FB681A1D1B
:108CB000FA601B683B6197ED097AD7ED057AB4EE4F
:108CC000E77AF1EE10FA04D57B697B62BB69033366
:108CD000FB6197ED097AD7ED047AB4EEE77AF1EE0D
:108CE00010FA04D53B697B62BB690433FB61BB6945
:108CF0000433BB613B6A013B3B623B6A002BAAD158
:108D0000BB68013B03F003033B6216E0FB681A1DDE
:108D1000FA601B687B6197ED097AD7ED057AB4EEAE
:108D2000E77AF1EE10FA05D57B697B62BA683B6A97
:108D3000D31AFB613B6A013B3B623B6A002BE5D1E6
:108D40007B687A6A1A603B68FA691A6000BF2C3740
:108D5000BD465DF8047B704780B48BB000AFF8600F
:108D6000B9607A604FF000037B62BB689B083B628E
:108D700036E0FB681A1DFA601B68FB61FB681A1D70
:108D8000FA601B68BB61FB681A1DFA601B687B6197
:108D9000FB681A1DFA601B683B6197ED097AD7EDF5
:108DA000077A77EE277AC7ED097A97ED097AD7ED3A
:108DB000067A77EE277AC7ED097A97ED097AD7ED2B
:108DC000057A77EE277AC7ED097A97ED097AD7ED1C
:108DD000047A77EE277AC7ED097A3B6A013B3B625A
:108DE0003B6A002BC5D1BB6803F003033B620DE077
:108DF000FB681A1DFA60D3ED007A97ED097A77EED9
:108E0000277AC7ED097A3B6A013B3B623B6A002B3C
:108E1000EED1BB6807EE903AB8EE677AD7ED096AF3
:108E2000C6EE877A7B68C3ED007A00BF2C37BD465B
:108E30005DF8047B704780B48BB000AFF860B96018
:108E40007A603B600023BB610023FB61FB681A1D55
:108E5000FA601B687B62BB68013B9B083B6251E088
:108E6000FB681A1DFA601B687B61FB681A1DFA60BB
:108E70001B683B6197ED097AD7ED057AB4EEE77A86
:108E8000F1EE10FA04DD7B697B62BB690133FB61A3
:108E9000FB681A1DFA601B687B6197ED097AD7EDB4
:108EA000047AB4EEE77AF1EE10FA04DD3B697B62F6
:108EB000BB690233FB61FB681A1DFA601B683B61EA
:108EC00097ED097AD7ED057AB4EEE77AF1EE10FA6C
:108ED00004DD7B697B62BB690333FB6197ED097A33
:108EE000D7ED047AB4EEE77AF1EE10FA04DD3B69CF
:108EF0007B62BB690433FB61BB690433BB613B6AC2
:108F0000013B3B623B6A002BAAD1BB68013B03F0EB
:108F100003033B6216E0FB681A1DFA601B687B6165
:108F200097ED097AD7ED057AB4EEE77AF1EE10FA0B
:108F300005DD7B697B62BA683B6AD31AFB613B6AD9
:108F4000013B3B623B6A002BE5D17B687A6A1A6081
:108F50003B68FA691A6000BF2C37BD465DF8047B98
:108F6000704780B582B000AF87ED010A3860D7ED59
:108F7000017AF5EEC07AF1EE10FA0ADB97ED010AFC
:108F800013F028F8F0EE407A3B68C3ED007A002336
:108F900005E03B684FF000021A604FF0FF331846BF
:108FA0000837BD4680BD80B588B000AFF860B960B5
:108FB0007A604FF00003FB61BB689B08BB613EE039
:108FC000FB681A1DFA601B687B61D7ED057A67EEB6
:108FD000A77A97ED077A77EE277AC7ED077AFB68CD
:108FE0001A1DFA601B687B61D7ED057A67EEA77AD8
:108FF00097ED077A77EE277AC7ED077AFB681A1D97
:10900000FA601B687B61D7ED057A67EEA77A97ED6A
:10901000077A77EE277AC7ED077AFB681A1DFA60A0
:109020001B687B61D7ED057A67EEA77A97ED077A23
:1090300077EE277AC7ED077ABB69013BBB61BB6955
:10904000002BBDD1BB6803F00303BB6111E0FB68DB
:109050001A1DFA601B687B61D7ED057A67EEA77A67
:1090600097ED077A77EE277AC7ED077ABB69013B60
:10907000BB61BB69002BEAD1BB6807EE903AF8EE02
:10908000677A97ED077AC7EE276A7868B0EE660AC6
:10909000FFF767FF00BF2037BD4680BD80B582B0B7
:1090A00000AF87ED010A3860D7ED017AF5EEC07A9E
:1090B000F1EE10FA0ADB97ED010A12F08BFFF0EEE9
:1090C000407A3B68C3ED007A002305E03B684FF02F
:1090D00000021A604FF0FF3318460837BD4680BDC6
:1090E00080B58CB000AFF860B9607A604FF00003D3
:1090F000FB624FF00003BB62BB68012B04D17B68AD
:109100004FF000021A60C4E0BB689B087B625EE01F
:10911000FB681A1DFA601B687B6197ED0B7AD7ED2F
:10912000057A77EE277AC7ED0B7AD7ED057A67EEE9
:10913000A77A97ED0A7A77EE277AC7ED0A7AFB6865
:109140001A1DFA601B687B6197ED0B7AD7ED057AE3
:1091500077EE277AC7ED0B7AD7ED057A67EEA77A17
:1091600097ED0A7A77EE277AC7ED0A7AFB681A1D1F
:10917000FA601B687B6197ED0B7AD7ED057A77EE85
:10918000277AC7ED0B7AD7ED057A67EEA77A97EDC8
:109190000A7A77EE277AC7ED0A7AFB681A1DFA6019
:1091A0001B687B6197ED0B7AD7ED057A77EE277A0E
:1091B000C7ED0B7AD7ED057A67EEA77A97ED0A7AB5
:1091C00077EE277AC7ED0A7A7B6A013B7B627B6A7E
:1091D000002B9DD1BB6803F003037B6219E0FB68A1
:1091E0001A1DFA601B687B6197ED0B7AD7ED057A43
:1091F00077EE277AC7ED0B7AD7ED057A67EEA77A77
:1092000097ED0A7A77EE277AC7ED0A7A7B6A013BF7
:109210007B627B6A002BE2D1BB6807EE903AF8EEE6
:10922000677AB7EE007A37EEC77AD7ED0A6AC6EEEC
:10923000877AC7ED087ABB6807EE903AB8EE677A8E
:10924000D7ED0B6AC6EE877AC7ED077AD7ED077AB6
:1092500027EEA77ABB6807EE903AB8EE676ABB685C
:1092600007EE903AF8EE677AF7EE006A77EEE66A74
:10927000C6EE267A67EE277AC7ED067A97ED087A6A
:10928000D7ED067A77EE677A7868B0EE670AFFF76F
:1092900005FF3037BD4680BD80B48DB000AFF860AB
:1092A000B9607A604FF00003FB624FF00003BB62CD
:1092B000BB68012B04D17B684FF000021A60C2E04A
:1092C000BB689B087B625EE0FB681A1DFA601B6846
:1092D0007B6197ED0B7AD7ED057A77EE277AC7EDAC
:1092E0000B7AD7ED057A67EEA77A97ED0A7A77EED3
:1092F000277AC7ED0A7AFB681A1DFA601B687B6142
:1093000097ED0B7AD7ED057A77EE277AC7ED0B7AD2
:10931000D7ED057A67EEA77A97ED0A7A77EE277A86
:10932000C7ED0A7AFB681A1DFA601B687B6197ED2E
:109330000B7AD7ED057A77EE277AC7ED0B7AD7ED62
:10934000057A67EEA77A97ED0A7A77EE277AC7ED66
:109350000A7AFB681A1DFA601B687B6197ED0B7A2D
:10936000D7ED057A77EE277AC7ED0B7AD7ED057A38
:1093700067EEA77A97ED0A7A77EE277AC7ED0A7A31
:109380007B6A013B7B627B6A002B9DD1BB6803F04B
:1093900003037B6219E0FB681A1DFA601B687B619E
:1093A00097ED0B7AD7ED057A77EE277AC7ED0B7A32
:1093B000D7ED057A67EEA77A97ED0A7A77EE277AE6
:1093C000C7ED0A7A7B6A013B7B627B6A002BE2D1A4
:1093D000BB6807EE903AF8EE677AB7EE007A37EEA0
:1093E000C77AD7ED0A6AC6EE877AC7ED087ABB68F6
:1093F00007EE903AB8EE677AD7ED0B6AC6EE877A39
:10940000C7ED077AD7ED077A27EEA77ABB6807EE94
:10941000903AB8EE676ABB6807EE903AF8EE677A62
:10942000F7EE006A77EEE66AC6EE267A67EE277AEE
:10943000C7ED067A97ED087AD7ED067A77EE677A68
:109440007B68C3ED007A3437BD465DF8047B704716
:1094500080B5A0B000AF786039607B681B88BB66C0
:10946000BB6E9B003A6813447B677B685B683B6715
:109470003B687B667B6F3B66BB6E5B08BB66BB6E07
:109480009B003A681344FB67BB6E9B007A6F1344E2
:10949000BB67BB6E9B08FB66B6E13B681B68BB63A2
:1094A0003B685B68FB633B689B683B643B68DB68CD
:1094B0007B647B6F1B68BB627B6F5B68FB627B6F4F
:1094C0009B683B637B6FDB687B63FB6F1B68BB61E7
:1094D000FB6F5B68FB61FB6F9B683B62FB6FDB684C
:1094E0007B62BB6F1B68BB60BB6F5B68FB60BB6F65
:1094F0009B683B61BB6FDB687B6197ED0E7AD7EDB4
:109500000A7A3B681A1D3A6077EE277AC3ED007A33
:1095100097ED0F7AD7ED0B7A3B681A1D3A6077EE1C
:10952000277AC3ED007A97ED107AD7ED0C7A3B6875
:109530001A1D3A6077EE277AC3ED007A97ED117A1B
:10954000D7ED0D7A3B681A1D3A6077EE277AC3EDA6
:10955000007A97ED0E7AD7ED0A7A77EE677AC7ED43
:109560000A7A97ED0F7AD7ED0B7A77EE677AC7ED27
:109570000B7A97ED107AD7ED0C7A77EE677AC7ED14
:109580000C7A97ED117AD7ED0D7A77EE677AC7ED01
:109590000D7A97ED067AD7ED027AFB6F1A1DFA67FE
:1095A00077EE277AC3ED007A97ED077AD7ED037A45
:1095B000FB6F1A1DFA6777EE277AC3ED007A97EDF5
:1095C000087AD7ED047AFB6F1A1DFA6777EE277ACF
:1095D000C3ED007A97ED097AD7ED057AFB6F1A1D76
:1095E000FA6777EE277AC3ED007A97ED027AD7ED26
:1095F000067A77EE677AC7ED027A97ED037AD7EDB0
:10960000077A77EE677AC7ED037A97ED047AD7ED9C
:10961000087A77EE677AC7ED047A97ED057AD7ED89
:10962000097A77EE677AC7ED057A3B6F1A1D3A67BC
:109630001B68FB653B6F1A1D3A671B68BB65D7ED5E
:109640000A7A97ED177A67EE277AC7ED157AD7ED84
:109650000B7A97ED167A67EE277AC7ED147AD7ED75
:109660000B7A97ED177A67EE277AC7ED137AD7ED65
:109670000A7A97ED167A67EE277AC7ED127A7B6F32
:109680001A1D7A6797ED157AD7ED147A77EE277A57
:10969000C3ED007A7B6F1A1D7A6797ED137AD7EDC9
:1096A000127A77EE677AC3ED007AD7ED027A97EDFA
:1096B000167A67EE277AC7ED157AD7ED037A97ED1C
:1096C000177A67EE277AC7ED147AD7ED037A97ED0C
:1096D000167A67EE277AC7ED137AD7ED027A97EDFF
:1096E000177A67EE277AC7ED127ABB6F1A1DBA6731
:1096F00097ED157AD7ED147A77EE677AC3ED007A95
:10970000BB6F1A1DBA6797ED137AD7ED127A77EE11
:10971000277AC3ED007A3B6F1A1D3A671B68FB6519
:109720003B6F1A1D3A671B68BB65D7ED0C7A97ED46
:10973000177A67EE277AC7ED157AD7ED0D7A97ED90
:10974000167A67EE277AC7ED147AD7ED0D7A97ED82
:10975000177A67EE277AC7ED137AD7ED0C7A97ED73
:10976000167A67EE277AC7ED127A7B6F1A1D7A6731
:1097700097ED157AD7ED147A77EE277AC3ED007A54
:109780007B6F1A1D7A6797ED137AD7ED127A77EE11
:10979000677AC3ED007AD7ED047A97ED167A67EE13
:1097A000277AC7ED157AD7ED057A97ED177A67EE28
:1097B000277AC7ED147AD7ED057A97ED167A67EE1A
:1097C000277AC7ED137AD7ED047A97ED177A67EE0B
:1097D000277AC7ED127ABB6F1A1DBA6797ED157A13
:1097E000D7ED147A77EE677AC3ED007ABB6F1A1D56
:1097F000BA6797ED137AD7ED127A77EE277AC3ED31
:10980000007AFB6E013BFB66FB6E002B7FF445AEDE
:10981000BB6E99B27B685A680223786E00F0F2FE44
:10982000BB6E99B27B685A680223386E00F0EAFE7C
:1098300000BF8037BD4680BD80B5ACB000AF78605A
:1098400039607B681B885B089BB2C7F88030D7F80B
:1098500080309B003A681344C7F89030D7F88030C6
:109860009B00D7F890201344C7F88C30D7F880308D
:109870009B00D7F88C201344C7F888303B68FB67FF
:10988000D7F89030BB67D7F88C307B67D7F8883033
:109890003B67D7F89030043BC7F8AC30D7F88C3032
:1098A000043BC7F8A830D7F88830043BC7F8A43089
:1098B000D7F880309B00D7F8A4201344C7F8A03015
:1098C0007B685B68C7F89430D7F89430C7F8983055
:1098D000D7F89830C7F89C30D7F880305B08C7F8C5
:1098E00080300223FB660423BB6606237B663B684D
:1098F00093ED007AD7F88C30D3ED007A77EE277AA3
:10990000C7ED187A3B6893ED007AD7F88C30D3ED29
:10991000007A77EE677AC7ED177A3B68043393EDE8
:10992000007AD7F88C300433D3ED007A77EE277ABB
:10993000C7ED167A3B68043393ED007AD7F88C3084
:109940000433D3ED007A77EE677AC7ED157AD7F84E
:109950009030043393ED007AD7ED177A37EE277AFB
:10996000D7F888300433D3ED007A77EE677AC7ED05
:109970000B7AD7F89030D3ED007A97ED157A37EE61
:10998000677AD7F88830D3ED007A77EE277AC7ED7B
:109990000C7AD7F89030D3ED007A97ED187A37EE3D
:1099A000677AD7F88830D3ED007A77EE677AC7ED1B
:1099B000077AD7F890300433D3ED007A97ED167A12
:1099C00037EE677AD7F888300433D3ED007A77EE34
:1099D000677AC7ED087AD7F890300433D3ED007A70
:1099E00097ED177A37EE677AD7F888300433D3EDDE
:1099F000007A77EE277AC7ED037AD7F8903093EDA7
:109A0000007AD7ED157A37EE277AD7F88830D3ED7C
:109A1000007A77EE677AC7ED047AD7F8903093ED45
:109A2000007AD7ED187A37EE277AD7F88830D3ED59
:109A3000007A3B681A1D3A6077EE277AC3ED007A08
:109A4000D7F89030043393ED007AD7ED167A37EEDD
:109A5000277AD7F888300433D3ED007A3B681A1D93
:109A60003A6077EE277AC3ED007AD7F890301A1D66
:109A7000C7F89020FA6A1A60D7F890301A1DC7F814
:109A800090203A6B1A60D7F88C301A1DC7F88C20DA
:109A9000FA691A60D7F88C301A1DC7F88C203A6A18
:109AA0001A60D7F888301A1DC7F88820FA681A603B
:109AB000D7F888301A1DC7F888203A691A60FB6EFB
:109AC0009B00D7F89C201344C7F89C30BB6E9B00CA
:109AD000D7F898201344C7F898307B6E9B00D7F8CE
:109AE00094201344C7F89430D7F88030023B5B08C9
:109AF000C7F884301AE33B6893ED007AD7F88C30CE
:109B0000D3ED007A77EE277AC7ED187A3B6893EDAC
:109B1000007AD7F88C30D3ED007A77EE677AC7ED0C
:109B2000177A3B68043393ED007AD7F88C3004330E
:109B3000D3ED007A77EE277AC7ED167A3B680433C7
:109B400093ED007AD7F88C300433D3ED007A77EEBA
:109B5000677AC7ED157AD7F89030043393ED007A21
:109B6000D7ED177A37EE277AD7F888300433D3ED5C
:109B7000007A77EE677AC7ED0B7AD7F89030D3ED9D
:109B8000007A97ED157A37EE677AD7F88830D3EDFB
:109B9000007A77EE277AC7ED0C7AD7F89030D3EDBC
:109BA000007A97ED187A37EE677AD7F88830D3EDD8
:109BB000007A77EE677AC7ED077AD7F890300433EA
:109BC000D3ED007A97ED167A37EE677AD7F88830BA
:109BD0000433D3ED007A77EE677AC7ED087AD7F8C9
:109BE00090300433D3ED007A97ED177A37EE677A29
:109BF000D7F888300433D3ED007A77EE277AC7EDB3
:109C0000037AD7F8903093ED007AD7ED157A37EED6
:109C1000277AD7F88830D3ED007A77EE677AC7EDE8
:109C2000047AD7F8903093ED007AD7ED187A37EEB2
:109C3000277AD7F88830D3ED007A3B681A1D3A604E
:109C400077EE277AC3ED007AD7F89030043393ED9E
:109C5000007AD7ED167A37EE277AD7F888300433B2
:109C6000D3ED007A3B681A1D3A6077EE277AC3ED90
:109C7000007AD7F8AC30043B93ED007AD7F8A430E3
:109C8000043BD3ED007A77EE277AC7ED167AD7F842
:109C9000AC30043B93ED007AD7F8A430043BD3ED0D
:109CA000007A77EE677AC7ED157AD7F8AC3093ED86
:109CB000007AD7F8A430D3ED007A77EE277AC7ED93
:109CC000187AD7F8AC3093ED007AD7F8A430D3EDFA
:109CD000007A77EE677AC7ED177AD7F8A83093ED58
:109CE000007AD7F8A030D3ED007A37EE677AD7ED57
:109CF000157A77EE277AC7ED0D7AD7F8AC3093ED69
:109D0000007AD7F8A430D3ED007A37EE677AD7F827
:109D1000A830043BD3ED007A37EE677AD7F8A0304D
:109D2000043BD3ED007A77EE277AC7ED0E7AD7F8A9
:109D3000A830043BD3ED007A97ED167A37EE677AB8
:109D4000D7F8A030043BD3ED007A77EE677AC7ED01
:109D5000097AD7F8A830D3ED007A97ED187A37EE64
:109D6000677AD7F8A030D3ED007A77EE677AC7ED3F
:109D70000A7AD7F8A83093ED007AD7F8A030D3ED5F
:109D8000007A37EE677AD7ED157A77EE677AC7ED06
:109D9000057AD7F8A030043B93ED007AD7F8A830C5
:109DA000043BD3ED007A37EE677AD7ED177A77EE7A
:109DB000677AC7ED067AD7F8A83093ED007AD7ED29
:109DC000187A37EE277AD7F8A030D3ED007AD7F893
:109DD000AC301A1FC7F8AC2077EE277AC3ED007AB3
:109DE000D7F8A830043B93ED007AD7ED167A37EE1A
:109DF000277AD7F8A030043BD3ED007AD7F8AC30FF
:109E00001A1FC7F8AC2077EE277AC3ED007AD7F88F
:109E10009C301A1DC7F89C201B683B65D7F89C3006
:109E20001A1DC7F89C201B68FB64D7ED0B7A97EDD1
:109E3000147A67EE277AC7ED127AD7ED0C7A97ED90
:109E4000137A67EE277AC7ED117AD7ED0C7A97ED82
:109E5000147A67EE277AC7ED107AD7ED0B7A97ED73
:109E6000137A67EE277AC7ED0F7AD7F890301A1D6C
:109E7000C7F8902097ED127AD7ED117A77EE277A0E
:109E8000C3ED007AD7F890301A1DC7F8902097EDEF
:109E9000107AD7ED0F7A77EE677AC3ED007AD7EDB7
:109EA0000E7A97ED137A67EE277AC7ED127AD7ED1F
:109EB0000D7A97ED147A67EE277AC7ED117AD7ED10
:109EC0000D7A97ED137A67EE277AC7ED107AD7ED02
:109ED0000E7A97ED147A67EE277AC7ED0F7AD7F8E6
:109EE000A8301A1FC7F8A82097ED127AD7ED117A7B
:109EF00077EE677AC3ED007AD7F8A8301A1FC7F853
:109F0000A82097ED107AD7ED0F7A77EE277AC3ED78
:109F1000007AD7F898301B683B65D7F898305B68B3
:109F2000FB64BB6E9B00D7F898201344C7F89830A9
:109F3000D7ED077A97ED147A67EE277AC7ED127A94
:109F4000D7ED087A97ED137A67EE277AC7ED117A85
:109F5000D7ED087A97ED147A67EE277AC7ED107A75
:109F6000D7ED077A97ED137A67EE277AC7ED0F7A68
:109F7000D7F88C301A1DC7F88C2097ED127AD7EDE0
:109F8000117A77EE277AC3ED007AD7F88C301A1D54
:109F9000C7F88C2097ED107AD7ED0F7A77EE677AB5
:109FA000C3ED007AD7ED0A7AF1EE677A97ED147A6D
:109FB00067EE277AC7ED127AD7ED097A97ED137A13
:109FC00067EE277AC7ED117AD7ED097A97ED147A03
:109FD00067EE277AC7ED107AD7ED0A7A97ED137AF4
:109FE00067EE277AC7ED0F7AD7F8A4301A1FC7F8A3
:109FF000A42097ED127AD7ED117A77EE677AC3ED48
:10A00000007AD7F8A4301A1FC7F8A42097ED0F7A6A
:10A01000D7ED107A77EE677AC3ED007AD7F89430EF
:10A020001B683B65D7F894305B68FB647B6E9B00D4
:10A03000D7F894201344C7F89430D7ED037A97EDFE
:10A04000147A67EE277AC7ED127AD7ED047A97ED86
:10A05000137A67EE277AC7ED117AD7ED047A97ED78
:10A06000147A67EE277AC7ED107AD7ED037A97ED69
:10A07000137A67EE277AC7ED0F7AD7F888301A1D62
:10A08000C7F8882097ED127AD7ED117A77EE277A04
:10A09000C3ED007AD7F888301A1DC7F8882097EDED
:10A0A000107AD7ED0F7A77EE677AC3ED007AD7EDA5
:10A0B000067A97ED137A67EE277AC7ED127AD7ED15
:10A0C000057A97ED147A67EE277AC7ED117AD7ED06
:10A0D000057A97ED137A67EE277AC7ED107AD7EDF8
:10A0E000067A97ED147A67EE277AC7ED0F7AD7F8DC
:10A0F000A0301A1FC7F8A02097ED127AD7ED117A79
:10A1000077EE677AC3ED007AD7F8A0301A1FC7F848
:10A11000A02097ED107AD7ED0F7A77EE277AC3ED6E
:10A12000007AD7F88430013BC7F88430D7F8843000
:10A13000002B7FF4E0AC3B6893ED007AD7F88C30CD
:10A14000D3ED007A77EE277AC7ED187A3B6893ED66
:10A15000007AD7F88C30D3ED007A77EE677AC7EDC6
:10A16000177A3B68043393ED007AD7F88C300433C8
:10A17000D3ED007A77EE277AC7ED167A3B68043381
:10A1800093ED007AD7F88C300433D3ED007A77EE74
:10A19000677AC7ED157AD7F89030043393ED007ADB
:10A1A000D7ED177A37EE277AD7F888300433D3ED16
:10A1B000007A77EE677AC7ED0B7AD7F89030D3ED57
:10A1C000007A97ED157A37EE677AD7F88830D3EDB5
:10A1D000007A77EE277AC7ED0C7AD7F89030D3ED76
:10A1E000007A97ED187A37EE677AD7F88830D3ED92
:10A1F000007A77EE677AC7ED077AD7F890300433A4
:10A20000D3ED007A97ED167A37EE677AD7F8883073
:10A210000433D3ED007A77EE677AC7ED087AD7F882
:10A2200090300433D3ED007A97ED177A37EE677AE2
:10A23000D7F888300433D3ED007A77EE277AC7ED6C
:10A24000037AD7F8903093ED007AD7ED157A37EE90
:10A25000277AD7F88830D3ED007A77EE677AC7EDA2
:10A26000047AD7F8903093ED007AD7ED187A37EE6C
:10A27000277AD7F88830D3ED007A3B681A1D3A6008
:10A2800077EE277AC3ED007AD7F89030043393ED58
:10A29000007AD7ED167A37EE277AD7F8883004336C
:10A2A000D3ED007A3B681A1D3A6077EE277AC3ED4A
:10A2B000007AD7F89C301B683B65D7F89C305B6808
:10A2C000FB64D7ED0B7A97ED147A67EE277AC7ED2A
:10A2D000127AD7ED0C7A97ED137A67EE277AC7EDED
:10A2E000117AD7ED0C7A97ED147A67EE277AC7EDDD
:10A2F000107AD7ED0B7A97ED137A67EE277AC7EDD0
:10A300000F7AD7F890301A1DC7F8902097ED127A7F
:10A31000D7ED117A77EE277AC3ED007AD7F890302F
:10A320001A1DC7F8902097ED107AD7ED0F7A77EEC7
:10A33000677AC3ED007AD7F898301B683B65D7F889
:10A3400098305B68FB64D7ED077A97ED147A67EE77
:10A35000277AC7ED127AD7ED087A97ED137A67EE70
:10A36000277AC7ED117AD7ED087A97ED147A67EE60
:10A37000277AC7ED107AD7ED077A97ED137A67EE53
:10A38000277AC7ED0F7AD7F88C301A1DC7F88C20C2
:10A3900097ED127AD7ED117A77EE277AC3ED007A2E
:10A3A000D7F88C301A1DC7F88C2097ED107AD7EDAE
:10A3B0000F7A77EE677AC3ED007AD7F894301B688E
:10A3C0003B65D7F894305B68FB64D7ED037A97ED73
:10A3D000147A67EE277AC7ED127AD7ED047A97EDF3
:10A3E000137A67EE277AC7ED117AD7ED047A97EDE5
:10A3F000147A67EE277AC7ED107AD7ED037A97EDD6
:10A40000137A67EE277AC7ED0F7AD7F888301A1DCE
:10A41000C7F8882097ED127AD7ED117A77EE277A70
:10A42000C3ED007AD7F888301A1DC7F8882097ED59
:10A43000107AD7ED0F7A77EE677AC3ED007AD7F806
:10A44000803099B27B685A680423F86F00F0DAF81C
:10A45000D7F8803099B27B685A680423B86F00F04F
:10A46000D1F8D7F8803099B27B685A680423786FA6
:10A4700000F0C8F8D7F8803099B27B685A68042396
:10A48000386F00F0BFF800BFB037BD4680BD80B563
:10A4900088B000AFF860B96011461A460B46FB71F0
:10A4A0001346BB71FB681B887B61FB79012B17D1BD
:10A4B000BB680433BB610023FB610DE0BB69D3EDD6
:10A4C000007AF1EE677ABB69C3ED007ABB690833A5
:10A4D000BB61FB690133FB61FA697B699A42EDD389
:10A4E0007B69B3F5805F40D07B69B3F5805F45D869
:10A4F0007B69B3F5006F33D07B69B3F5006F3DD84E
:10A500007B69B3F5806F26D07B69B3F5806F35D852
:10A510007B69B3F5007F28D07B69B3F5007F2DD828
:10A520007B69B3F5807F1BD07B69B3F5807F25D82D
:10A530007B69802B0FD07B69802B1FD87B69402BD8
:10A5400013D07B69402B19D87B69102B03D07B6912
:10A55000202B05D012E0B968F868FEF779FF0DE00E
:10A56000B968F868FFF768F908E07B6999B2FB6899
:10A570005A680123B86800F045F800BFBB79002B8A
:10A5800007D0FB689989FB689B681A46B868FDF795
:10A5900057FEFB79012B30D17B6907EE903AB8EE7C
:10A5A000677AF7EE006AC6EE877AC7ED047ABB6871
:10A5B000BB610023FB611CE0BB691A1DBA6193ED0E
:10A5C000007AD7ED047A67EE277AC3ED007ABB698B
:10A5D000D3ED007AB1EE677AD7ED047A67EE277A89
:10A5E000BB69C3ED007ABB690433BB61FB6901330E
:10A5F000FB61FA697B699A42DED300BF2037BD4612
:10A6000080BD000080B4BDB000AFF8607A601A462B
:10A610000B467B8113463B81094BC7F8DC307B89B5
:10A62000C7F8E430D7F8E430C7F8D830D7F8E430CA
:10A63000DB08C7F8E4300023C7F8E83002E000BFC9
:10A64000F304353FD7F8E820D7F8E4301344C7F8CF
:10A65000D430D7F8D420D7F8E4301344C7F8D0303A
:10A66000D7F8D020D7F8E4301344C7F8CC30D7F867
:10A67000CC20D7F8E4301344C7F8C830D7F8C82046
:10A68000D7F8E4301344C7F8C430D7F8C420D7F85B
:10A69000E4301344C7F8C030D7F8C020D7F8E4300E
:10A6A0001344C7F8BC30D7F8E830DB00FA6813442D
:10A6B00093ED007AD7F8C830DB00FA681344D3ED85
:10A6C000007A77EE277AC7ED2E7AD7F8E830DB00EC
:10A6D000FA68134493ED007AD7F8C830DB00FA68C3
:10A6E0001344D3ED007A77EE677AC7ED2D7AD7F869
:10A6F000D430DB00FA68134493ED007AD7F8C43005
:10A70000DB00FA681344D3ED007A77EE277AC7EDC1
:10A710002C7AD7F8D430DB00FA68134493ED007A32
:10A72000D7F8C430DB00FA681344D3ED007A77EE33
:10A73000677AC7ED2B7AD7F8D030DB00FA6813447C
:10A7400093ED007AD7F8C030DB00FA681344D3EDFC
:10A75000007A77EE277AC7ED2A7AD7F8D030DB0077
:10A76000FA68134493ED007AD7F8C030DB00FA683A
:10A770001344D3ED007A77EE677AC7ED297AD7F8DC
:10A78000CC30DB00FA68134493ED007AD7F8BC3084
:10A79000DB00FA681344D3ED007A77EE277AC7ED31
:10A7A000287AD7F8CC30DB00FA68134493ED007AAE
:10A7B000D7F8BC30DB00FA681344D3ED007A77EEAB
:10A7C000677AC7ED277A97ED2E7AD7ED2A7A77EE5A
:10A7D000677AC7ED267A97ED2E7AD7ED2A7A77EE4B
:10A7E000277AC7ED2E7A97ED2C7AD7ED287A77EE77
:10A7F000677AC7ED2A7A97ED2C7AD7ED287A77EE2B
:10A80000277AC7ED2C7AD7F8E830DB00FA681344D2
:10A8100097ED2E7AD7ED2C7A77EE277AC3ED007A72
:10A82000D7F8C830DB00FA68134497ED2E7AD7EDDD
:10A830002C7A77EE677AC3ED007AD7F8E830DB0040
:10A840000433FA68134493ED007AD7F8C830DB007C
:10A850000433FA681344D3ED007A77EE277AC7ED14
:10A860002E7AD7F8E830DB000433FA68134493ED0E
:10A87000007AD7F8C830DB000433FA681344D3ED0C
:10A88000007A77EE677AC7ED257AD7F8D430DB0007
:10A890000433FA68134493ED007AD7F8C430DB0030
:10A8A0000433FA681344D3ED007A77EE277AC7EDC4
:10A8B0002C7AD7F8D430DB000433FA68134493EDD4
:10A8C000007AD7F8C430DB000433FA681344D3EDC0
:10A8D000007A77EE677AC7ED247AD7F8D030DB00BC
:10A8E0000433FA68134493ED007AD7F8C030DB00E4
:10A8F0000433FA681344D3ED007A77EE277AC7ED74
:10A90000237AD7F8D030DB000433FA68134493ED90
:10A91000007AD7F8C030DB000433FA681344D3ED73
:10A92000007A77EE677AC7ED227AD7F8CC30DB0071
:10A930000433FA68134493ED007AD7F8BC30DB0097
:10A940000433FA681344D3ED007A77EE277AC7ED23
:10A95000287AD7F8CC30DB000433FA68134493ED3F
:10A96000007AD7F8BC30DB000433FA681344D3ED27
:10A97000007A77EE677AC7ED217A97ED2E7AD7EDD8
:10A98000237A77EE677AC7ED207A97ED2E7AD7EDA6
:10A99000237A77EE277AC7ED2E7A97ED2C7AD7EDCA
:10A9A000287A77EE677AC7ED237A97ED2C7AD7ED80
:10A9B000287A77EE277AC7ED2C7AD7F8E830DB00D3
:10A9C0000433FA68134497ED2E7AD7ED2C7A77EE9C
:10A9D000277AC3ED007AD7F8C830DB000433FA6871
:10A9E000134497ED2E7AD7ED2C7A77EE677AC3ED84
:10A9F000007AD7F8D030DB00FA68134497ED267A56
:10AA0000D7ED237A77EE277AC3ED007AD7F8C030F6
:10AA1000DB00FA68134497ED267AD7ED237A77EEB8
:10AA2000677AC3ED007AD7F8D030DB000433FA68D8
:10AA3000134497ED207AD7ED2A7A77EE677AC3ED43
:10AA4000007AD7F8C030DB000433FA68134497ED7E
:10AA5000207AD7ED2A7A77EE277AC3ED007A97ED40
:10AA60002B7AD7ED277A77EE677A97ED377A67EE0C
:10AA7000277AC7ED2E7A97ED2B7AD7ED277A77EEE6
:10AA8000277A97ED377A67EE277AC7ED2B7A97ED1D
:10AA9000247AD7ED217A77EE677A97ED377A67EEE9
:10AAA000277AC7ED2C7A97ED247AD7ED217A77EEC5
:10AAB000277A97ED377A67EE277AC7ED247A97EDF4
:10AAC0002D7AD7ED2E7A77EE677AC7ED267A97ED55
:10AAD0002D7AD7ED2E7A77EE277AC7ED2D7A97ED7E
:10AAE000297AD7ED2B7A77EE677AC7ED277A97ED3B
:10AAF000297AD7ED2B7A77EE277AC7ED297A97ED69
:10AB0000257AD7ED2C7A77EE677AC7ED207A97ED24
:10AB1000257AD7ED2C7A77EE277AC7ED257A97ED4F
:10AB2000227AD7ED247A77EE677AC7ED217A97ED0E
:10AB3000227AD7ED247A77EE277AC7ED227AD7F8F2
:10AB4000D430DB00FA68134497ED2D7AD7ED227AE2
:10AB500077EE277AC3ED007AD7F8BC30DB00FA68CD
:10AB6000134497ED2D7AD7ED227A77EE677AC3ED0D
:10AB7000007AD7F8C430DB00FA68134497ED267AE0
:10AB8000D7ED217A77EE277AC3ED007AD7F8CC306B
:10AB9000DB00FA68134497ED267AD7ED217A77EE39
:10ABA000677AC3ED007AD7F8D430DB000433FA6853
:10ABB000134497ED257AD7ED297A77EE677AC3EDBE
:10ABC000007AD7F8BC30DB000433FA68134497ED01
:10ABD000257AD7ED297A77EE277AC3ED007AD7F870
:10ABE000C430DB000433FA68134497ED207AD7EDC4
:10ABF000277A77EE677AC3ED007AD7F8CC30DB009E
:10AC00000433FA68134497ED207AD7ED277A77EE6C
:10AC1000277AC3ED007AD7F8E820D7F8D830134464
:10AC2000C7F8E8307B89D7F8E8209A42FFF40AADEC
:10AC3000D7F8E430072B40F2E3840023C7F8EC3068
:10AC40000123C7F8E0303B89D7F8EC201344FB67B9
:10AC5000FB6FC7F8EC30D7F8EC20FB6F1344BB67F1
:10AC6000BA6FFB6F13447B677A6FFB6F13443B67CC
:10AC70003A6FFB6F1344FB66FA6EFB6F1344BB66BF
:10AC8000BA6EFB6F13447B66D7F8EC30DB007A6852
:10AC900013441B683B66BB6FDB007A6813441B6878
:10ACA000FB657B6FDB007A6813441B68BB653B6FF9
:10ACB000DB007A6813441B687B65FB6EDB007A68F7
:10ACC00013441B683B65BB6EDB007A6813441B684A
:10ACD000FB647B6EDB007A6813441B68BB64D7F8A7
:10ACE000EC30DB0004337A6813441B687B64BB6F71
:10ACF000DB0004337A6813441B683B647B6FDB0022
:10AD000004337A6813441B68FB633B6FDB00043336
:10AD10007A6813441B68BB63FB6EDB0004337A68FC
:10AD200013441B687B63BB6EDB0004337A681344F7
:10AD30001B683B637B6EDB0004337A6813441B683B
:10AD4000FB62D7F8E030C7F8E830D7F8E820D7F84A
:10AD5000E4301344C7F8D430D7F8D420D7F8E4301F
:10AD60001344C7F8D030D7F8D020D7F8E4301344D4
:10AD7000C7F8CC30D7F8CC20D7F8E4301344C7F864
:10AD8000C830D7F8C820D7F8E4301344C7F8C43027
:10AD9000D7F8C420D7F8E4301344C7F8C030D7F848
:10ADA000C020D7F8E4301344C7F8BC30D7F8E830F7
:10ADB000DB00FA68134493ED007AD7F8C830DB0063
:10ADC000FA681344D3ED007A77EE277AC7ED2E7A2E
:10ADD000D7F8E830DB00FA68134493ED007AD7F82F
:10ADE000C830DB00FA681344D3ED007A77EE677A57
:10ADF000C7ED2D7AD7F8D430DB00FA68134493ED11
:10AE0000007AD7F8C430DB00FA681344D3ED007A37
:10AE100077EE277AC7ED2C7AD7F8D430DB00FA68C2
:10AE2000134493ED007AD7F8C430DB00FA6813447A
:10AE3000D3ED007A77EE677AC7ED2B7AD7F8D0306A
:10AE4000DB00FA68134493ED007AD7F8C030DB00DA
:10AE5000FA681344D3ED007A77EE277AC7ED2A7AA1
:10AE6000D7F8D030DB00FA68134493ED007AD7F8B6
:10AE7000C030DB00FA681344D3ED007A77EE677ACE
:10AE8000C7ED297AD7F8CC30DB00FA68134493ED8C
:10AE9000007AD7F8BC30DB00FA681344D3ED007AAF
:10AEA00077EE277AC7ED287AD7F8CC30DB00FA683E
:10AEB000134493ED007AD7F8BC30DB00FA681344F2
:10AEC000D3ED007A77EE677AC7ED277A97ED2E7A81
:10AED000D7ED2A7A77EE677AC7ED267A97ED2E7A44
:10AEE000D7ED2A7A77EE277AC7ED2E7A97ED2C7A6E
:10AEF000D7ED287A77EE677AC7ED2A7A97ED2C7A24
:10AF0000D7ED287A77EE277AC7ED2C7AD7F8E83094
:10AF1000DB00FA68134497ED2E7AD7ED2C7A77EEA2
:10AF2000277AC3ED007A97ED2E7AD7ED2C7A77EE5B
:10AF3000677AC7ED2C7AD7F8E830DB000433FA687B
:10AF4000134493ED007AD7F8C830DB000433FA6875
:10AF50001344D3ED007A77EE277AC7ED0A7AD7F853
:10AF6000E830DB000433FA68134493ED007AD7F835
:10AF7000C830DB000433FA681344D3ED007A77EE6F
:10AF8000677AC7ED257AD7F8D430DB000433FA6846
:10AF9000134493ED007AD7F8C430DB000433FA6829
:10AFA0001344D3ED007A77EE277AC7ED097AD7F804
:10AFB000D430DB000433FA68134493ED007AD7F8F9
:10AFC000C430DB000433FA681344D3ED007A77EE23
:10AFD000677AC7ED247AD7F8D030DB000433FA68FB
:10AFE000134493ED007AD7F8C030DB000433FA68DD
:10AFF0001344D3ED007A77EE277AC7ED237AD7F89A
:10B00000D030DB000433FA68134493ED007AD7F8AC
:10B01000C030DB000433FA681344D3ED007A77EED6
:10B02000677AC7ED227AD7F8CC30DB000433FA68B0
:10B03000134493ED007AD7F8BC30DB000433FA6890
:10B040001344D3ED007A77EE277AC7ED087AD7F864
:10B05000CC30DB000433FA68134493ED007AD7F860
:10B06000BC30DB000433FA681344D3ED007A77EE8A
:10B07000677AC7ED217A97ED0A7AD7ED237A77EED2
:10B08000677AC7ED207A97ED0A7AD7ED237A77EEC3
:10B09000277AC7ED0A7A97ED097AD7ED087A77EE25
:10B0A000677AC7ED237A97ED097AD7ED087A77EEBC
:10B0B000277AC7ED097A97ED267AD7ED237A77EECE
:10B0C000277AC7ED2E7A97ED267AD7ED237A77EE99
:10B0D000677AC7ED267AD7F8E830DB000433FA68E0
:10B0E000134497ED0A7AD7ED097A77EE277AC3ED04
:10B0F000007A97ED0A7AD7ED097A77EE677AC7ED8D
:10B10000097A97ED207AD7ED2A7A77EE677AC7ED3C
:10B110000A7A97ED207AD7ED2A7A77EE277AC7ED6B
:10B12000207A97ED157AD7ED2C7A67EE277AC7ED5E
:10B13000077A97ED0E7AD7ED097A67EE277AC7ED91
:10B14000067A97ED157AD7ED097A67EE277AC7ED7B
:10B15000057A97ED0E7AD7ED2C7A67EE277AC7ED50
:10B16000047AD7F8C830DB00FA68134497ED077A01
:10B17000D7ED067A77EE277AC3ED007AD7F8C83094
:10B18000DB000433FA68134497ED057AD7ED047AAF
:10B1900077EE677AC3ED007A97ED177AD7ED2E7ABE
:10B1A00067EE277AC7ED077A97ED107AD7ED0A7A1E
:10B1B00067EE277AC7ED067A97ED177AD7ED0A7A08
:10B1C00067EE277AC7ED057A97ED107AD7ED2E7ADC
:10B1D00067EE277AC7ED047AD7F8D030DB00FA683B
:10B1E000134497ED077AD7ED067A77EE277AC3ED09
:10B1F000007AD7F8D030DB000433FA68134497EDB7
:10B20000057AD7ED047A77EE677AC3ED007A97ED89
:10B21000137AD7ED267A67EE277AC7ED077A97ED8E
:10B220000C7AD7ED207A67EE277AC7ED067A97ED8C
:10B23000137AD7ED207A67EE277AC7ED057A97ED76
:10B240000C7AD7ED267A67EE277AC7ED047AD7F81D
:10B25000C030DB00FA68134497ED077AD7ED067A21
:10B2600077EE277AC3ED007AD7F8C030DB000433DD
:10B27000FA68134497ED057AD7ED047A77EE677A8A
:10B28000C3ED007A97ED2B7AD7ED277A77EE677AC0
:10B2900097ED377A67EE277AC7ED2E7A97ED2B7AFE
:10B2A000D7ED277A77EE277A97ED377A67EE277A08
:10B2B000C7ED2B7A97ED247AD7ED217A77EE677A6E
:10B2C00097ED377A67EE277AC7ED0A7A97ED247AF9
:10B2D000D7ED217A77EE277A97ED377A67EE277ADE
:10B2E000C7ED247A97ED2D7AD7ED2E7A77EE677A2F
:10B2F000C7ED267A97ED2D7AD7ED2E7A77EE277A5D
:10B30000C7ED2D7A97ED297AD7ED2B7A77EE677A0C
:10B31000C7ED277A97ED297AD7ED2B7A77EE277A42
:10B32000C7ED297A97ED257AD7ED0A7A77EE677A15
:10B33000C7ED207A97ED257AD7ED0A7A77EE277A4E
:10B34000C7ED257A97ED227AD7ED247A77EE677AE2
:10B35000C7ED217A97ED227AD7ED247A77EE277A16
:10B36000C7ED227A97ED2D7AD7ED227A77EE277AFC
:10B37000C7ED2E7A97ED2D7AD7ED227A77EE677AA0
:10B38000C7ED2D7A97ED267AD7ED217A77EE277AD9
:10B39000C7ED2B7A97ED267AD7ED217A77EE677A8B
:10B3A000C7ED267A97ED257AD7ED297A77EE677A79
:10B3B000C7ED0A7A97ED257AD7ED297A77EE277AC5
:10B3C000C7ED257A97ED207AD7ED277A77EE677A61
:10B3D000C7ED247A97ED207AD7ED277A77EE277A92
:10B3E000C7ED207A97ED187AD7ED2E7A67EE277A97
:10B3F000C7ED077A97ED117AD7ED0A7A67EE277ACB
:10B40000C7ED067A97ED187AD7ED0A7A67EE277AB4
:10B41000C7ED057A97ED117AD7ED2E7A67EE277A88
:10B42000C7ED047AD7F8D430DB00FA68134497EDFF
:10B43000077AD7ED067A77EE277AC3ED007AD7F848
:10B44000D430DB000433FA68134497ED057AD7ED66
:10B45000047A77EE677AC3ED007A97ED127AD7ED2A
:10B460002D7A67EE277AC7ED077A97ED0B7AD7ED3D
:10B47000257A67EE277AC7ED067A97ED127AD7ED2F
:10B48000257A67EE277AC7ED057A97ED0B7AD7ED27
:10B490002D7A67EE277AC7ED047AD7F8BC30DB0047
:10B4A000FA68134497ED077AD7ED067A77EE277A94
:10B4B000C3ED007AD7F8BC30DB000433FA681344DC
:10B4C00097ED057AD7ED047A77EE677AC3ED007AC7
:10B4D00097ED147AD7ED2B7A67EE277AC7ED077AC6
:10B4E00097ED0D7AD7ED247A67EE277AC7ED067AC5
:10B4F00097ED147AD7ED247A67EE277AC7ED057AAF
:10B5000097ED0D7AD7ED2B7A67EE277AC7ED047A9F
:10B51000D7F8C430DB00FA68134497ED077AD7ED0B
:10B52000067A77EE277AC3ED007AD7F8C430DB00CD
:10B530000433FA68134497ED057AD7ED047A77EE71
:10B54000677AC3ED007A97ED167AD7ED267A67EE23
:10B55000277AC7ED077A97ED0F7AD7ED207A67EE55
:10B56000277AC7ED067A97ED167AD7ED207A67EE3F
:10B57000277AC7ED057A97ED0F7AD7ED267A67EE31
:10B58000277AC7ED047AD7F8CC30DB00FA68134489
:10B5900097ED077AD7ED067A77EE277AC3ED007A32
:10B5A000D7F8CC30DB000433FA68134497ED057A02
:10B5B000D7ED047A77EE677AC3ED007AD7F8E82002
:10B5C000D7F8D8301344C7F8E8307B89D7F8E8209B
:10B5D0009A42FFF4BAABD7F8E0300133C7F8E03055
:10B5E000D7F8E020D7F8E4309A42FFF42CAB3B893F
:10B5F000DB003B81D7F8E430072B3FF613A800E0CF
:10B6000000BF00BFF437BD465DF8047B704700BF44
:10B6100080B582B000AF03460A46FB711346BB718A
:10B62000FB791B015AB297F9063013435BB2DBB2C8
:10B630001946012000F032F800BF0837BD4680BD32
:10B6400080B584B000AF0346FB71FB793B730022E9
:10B650001021094804F01CFE07F10C0132230122DD
:10B66000064806F024FD01221021034804F010FED4
:10B6700000BF1037BD4680BD000002404884062050
:10B6800080B582B000AF0346FB71FB7919460320F9
:10B6900000F004F800BF0837BD4680BD80B584B017
:10B6A00000AF03460A46FB711346BB71FB7943F0BA
:10B6B0005003DBB23B7300237B73BB79BB73002267
:10B6C0001021094804F0E4FD07F10C016423032272
:10B6D000064806F0ECFC01221021034804F0D8FDD6
:10B6E00000BF1037BD4680BD0000024048840620E0
:10B6F00080B582B000AF0346FB71FB79194602208A
:10B70000FFF7CCFF00BF0837BD4680BD80B582B0D3
:10B7100000AF00237B6009E00821094804F0A0FD88
:10B720000346002B07D07B6801337B607B68054AAA
:10B730009342F1D300E000BF00BF0837BD4680BD93
:10B7400000000240005A620280B582B000AFFFF7ED
:10B75000DDFF002000F020F80346FB71FB79DBB22F
:10B760001B09DBB218460837BD4680BD80B584B0E2
:10B7700002AFFF23FB710023BB71BA1DF91D3223F9
:10B7800000930123034806F000FEBB7918460837F2
:10B79000BD4680BD4884062080B584B000AF034616
:10B7A000FB71FB7943F01003DBB23B7300237B7327
:10B7B000002210210D4804F06BFD07F10C0132232B
:10B7C00002220B4806F073FC0A2000F015FEFFF77A
:10B7D000CDFF0346FB7301221021044804F058FDFD
:10B7E000FB7B18461037BD4680BD00BF00000240FD
:10B7F0004884062080B582B000AF0123FB7150233E
:10B800003B71FB795B005BB243F004035BB2DBB2DC
:10B810007B7100221021094804F03AFD391D3223C2
:10B820000222074806F043FC01221021034804F0DD
:10B830002FFD00BF0837BD4680BD00BF000002409D
:10B840004884062080B400AFBFF34F8F00BF064B83
:10B85000DB6803F4E0620449044B1343CB60BFF39D
:10B860004F8F00BF00BFFDE700ED00E00400FA05C8
:10B8700080B52DED0C8B9EB01CAF78603960694BA4
:10B880005B78002B08D0674B00221A704FF47A7057
:10B8900000F00AFEFFF7D6FF624B1B78002B00F08A
:10B8A000BB803B68D3ED0A7A9FED5F7A67EE877ABB
:10B8B000B7EEE77A3B68D3ED0B6A9FED5B6A66EE05
:10B8C000866AB7EEE66A3B68D3ED0D5A9FED565A8D
:10B8D00065EE855AB7EEE55A3B68D3ED004A9FED19
:10B8E000524A64EE844AB7EEE44A3B68D3ED063A26
:10B8F0009FED4D3A63EE833AB7EEE33A3B68D3ED02
:10B90000022A9FED492A62EE822AB7EEE22A3B68BC
:10B91000D3ED041A9FED441A61EE811AB7EEE11AD5
:10B920003B68D3ED070A9FED400A60EE800AB7EE50
:10B93000E00A3B6893ED088ADFED3B8A28EE288A0F
:10B94000B7EEC88A3B6893ED099ADFED379A29EE86
:10B95000299AB7EEC99A354B93ED0EAADFED32AABC
:10B960002AEE2AAAB7EECAAA304B93ED0FBADFED42
:10B970002EBA2BEE2BBAB7EECBBA2C4B93ED10CAE6
:10B98000DFED29CA2CEE2CCAB7EECCCA274B93EDBB
:10B9900036DADFED27DA2DEE2DDAB7EECDDA8DEDE2
:10B9A0001ADB8DED18CB8DED16BB8DED14AB8DED47
:10B9B000129B8DED108B8DED0E0B8DED0C1B8DED17
:10B9C0000A2B8DED083B8DED064B8DED045B8DED67
:10B9D000026B8DED007B174A8021174803F01CFA9B
:10B9E0001548FCF78DFC0346802B04D81248FCF761
:10B9F00087FC034600E080230A4AC2F82432094B40
:10BA0000D3F824329BB21A460B49786807F008FC39
:10BA10000346002B00D100BF00BF0837BD46BDEC78
:10BA20000C8B80BD8001062000007A44849D052097
:10BA30000000C84228C101082002062080B586B057
:10BA400000AFF860B9607A60FB681B78002B11D0FA
:10BA5000B968F8680CF0BAFA78617B681A46B96878
:10BA600078690CF0A1FA0346002B01D1012302E012
:10BA7000002300E0002318461837BD4680BD80B47F
:10BA800085B000AF786039604FF00003FB600023A1
:10BA9000BB600EE0BB689B007A681344D3ED007A6C
:10BAA00097ED037A77EE277AC7ED037ABB68013307
:10BAB000BB60BA683B689A42ECDB3B6807EE903AA1
:10BAC000F8EEE77A97ED037AC7EE276AF0EE667A2A
:10BAD000B0EE670A1437BD465DF8047B704780B549
:10BAE00088B000AFF860B9607A60B968F868FFF7AD
:10BAF000C6FF87ED050A4FF00003FB610023BB6121
:10BB000025E0BB699B00FA68134493ED007AD7EDFA
:10BB1000057A77EE677AB7EEE77A7B6806EE903AB9
:10BB2000B8EEE66BB0EE461BB0EE470B0FF064FFCD
:10BB3000B0EE406BD7ED077AB7EEE77A36EE077BCB
:10BB4000F7EEC77BC7ED077ABB690133BB61BA6902
:10BB5000BB689A42D5DBBB6807EE903AF8EEE77A0D
:10BB600097ED077AC7EE276AF0EE667AB0EE670ABD
:10BB70002037BD4680BD80B586B000AF78603960A3
:10BB800039687868FFF77BFF87ED030A4FF0000301
:10BB90007B6100233B6118E03B699B007A6813449A
:10BBA00093ED007AD7ED037A77EE677AC7ED027AE4
:10BBB000D7ED027A67EEA77A97ED057A77EE277AC6
:10BBC000C7ED057A3B6901333B613A693B689A42AC
:10BBD000E2DB3B68013B07EE903AF8EEE77A97ED3F
:10BBE000057AC7EE276AF0EE667AB0EE670A183774
:10BBF000BD4680BD80B582B000AF786039603968DD
:10BC00007868FFF7B8FFF0EE407AB7EEE77AB0EE6B
:10BC1000470B10F0B5F9B0EE407BF7EEC77BB0EE06
:10BC2000670A0837BD4680BD80B52DED028B86B012
:10BC300000AF78603960032239687868FFF74FFFFA
:10BC400087ED050A39687868FFF7D4FF87ED040AA5
:10BC50003B68013BFB603B68FA6802FB03F307EEBD
:10BC6000903AB8EEE77BB0EE470B10F089F9B0EEF2
:10BC7000405BFB6807EE903AB8EEE77B85EE076B1A
:10BC8000D7ED057AB7EEE77A26EE078BD7ED047A83
:10BC9000B7EEE77AB0EE081BB0EE470B0FF0ACFE44
:10BCA000B0EE406B88EE067BF7EEC77BC7ED027AFD
:10BCB000BB6807EE903AB0EE670A1837BD46BDEC98
:10BCC000028B80BD80B586B000AF786039600222FB
:10BCD00039687868FFF703FF87ED050A04223968A1
:10BCE0007868FFF7FCFE87ED040AD7ED057A27EEAA
:10BCF000A77AD7ED046AC6EE877AB0EE087A77EEB7
:10BD0000C77AC7ED037AFB6807EE903AB0EE670A90
:10BD10001837BD4680BD000080B590B000AFF86018
:10BD2000B9601346FB71BB681B68002B00F0F980FB
:10BD30004FF480400BF0A6F8F86243F69823BB62FC
:10BD4000BB6A07EE903AF8EEE76A7D4B1B6807EE98
:10BD5000903AB8EE677AC6EE877AC7ED097A4FF067
:10BD600000033B62BB681B6807EE903AF8EEE76A97
:10BD700097ED097AC6EE877AC7ED077ABB685B68EC
:10BD800007EE903AF8EEE76A97ED097AC6EE877A01
:10BD9000C7ED067A4FF00003FB634FF00003BB636F
:10BDA0004FF000037B61D7ED067AFDEEE77A17EEE0
:10BDB000903A7B6316E07B6B9B00FA68134493ED2B
:10BDC000007A7B6B9B00FA681344D3ED007A67EE30
:10BDD000277A97ED0F7A77EE277AC7ED0F7A7B6B8C
:10BDE00001337B63D7ED077AFDEEE77A17EE902AF1
:10BDF0007B6B9342DFDBD7ED067AFDEEE77A17EE39
:10BE0000903A3B6349E03B6B002B0AD13B6B9B00B4
:10BE1000FA681A443B6B9B00F96A0B4412681A607B
:10BE200024E03B6B9B00FA681344D3ED007A9FED4E
:10BE3000457A67EE877AB7EEE75AD7ED097AB7EE1B
:10BE4000E77A9FED3B6B27EE066B3B6B07EE903A74
:10BE5000B8EEE77B26EE076B85EE067B3B6B9B001F
:10BE6000FA6A1344F7EEC77BC3ED007A3B6B9B0085
:10BE7000FA6A134493ED007A3B6B9B00FA6A134411
:10BE8000D3ED007A67EE277A97ED0E7A77EE277A70
:10BE9000C7ED0E7A3B6B01333B63D7ED077AFDEEBE
:10BEA000E77A17EE902A3B6B9342ACDBD7ED0F7A23
:10BEB00077EEA77AB7EEE77AB0EE470B10F060F8AE
:10BEC000B0EE406B9FED1C5B86EE057BF7EEC77B0B
:10BED000C7ED087AD7ED0E7A77EEA77AB7EEE77A54
:10BEE000B0EE470B10F04CF8B0EE406B9FED125BDC
:10BEF00086EE057BF7EEC77BC7ED057A97F907302D
:10BF0000114A0E339B0013443A6A1A6097F90730BE
:10BF10000D4A22339B0013447A691A60F86A0BF0C9
:10BF20007BF800BF4037BD4680BD00BFAFF3008047
:10BF30004AD8124DFB211940000000000000B0401B
:10BF40000C000020003C1946849D052000000000E4
:10BF500080B590B000AF786039604FF00003FB63AC
:10BF60004FF00003BB624FF00003BB634FF00003D0
:10BF70007B634FF000033B610023FB6000233B63C6
:10BF800016E03B6B9B007A68134493ED007A3B6BA1
:10BF90009B007A681344D3ED007A67EE277A97ED19
:10BFA0000F7A77EE277AC7ED0F7A3B6B01333B634D
:10BFB0003B68002B00DA01335B101A463B6B93425F
:10BFC000DFDB4FF480537B624FF08B433B62944B3B
:10BFD000FB61D7ED076A97ED087AC6EE877AC7ED61
:10BFE000067A4FF000037B610023FB8551E0FA8D58
:10BFF0007B6A002B00DA01335B109A4246DAFB8D34
:10C00000002B0AD1FB8D9B007A681A44FB8D9B00A4
:10C0100079680B4412681A6024E0FB8D9B007A68F3
:10C020001344D3ED007A9FED7F7A67EE877AB7EEFF
:10C03000E75AD7ED067AB7EEE77A9FED756B27EEF4
:10C04000066BFB8D07EE903AB8EEE77B26EE076BAA
:10C0500085EE067BFB8D9B007A681344F7EEC77B69
:10C06000C3ED007AFB8D9B007A68134493ED007A50
:10C07000FB8D9B007A681344D3ED007A67EE277A34
:10C0800097ED0E7A77EE277AC7ED0E7AFB8D0133A6
:10C09000FB85FA8D7B6A002B00DA01335B109A4234
:10C0A000A5DB0023BB854DE0BA8D7B6A002B00DA4F
:10C0B00001335B109A4242DABB8D002B0AD1BB8D53
:10C0C0009B007A681A44BB8D9B0079680B44126808
:10C0D0001A6020E0BB8D9B007A681344D3ED007A90
:10C0E000B7EEE75AD7ED067AB7EEE77A9FED486BE1
:10C0F00027EE066BBB8D07EE903AB8EEE77B26EE97
:10C10000076B85EE067BBB8D9B007A681344F7EEC8
:10C11000C77BC3ED007ABB8D9B007A68134493ED17
:10C12000007ABB8D9B007A681344D3ED007A67EEEA
:10C13000277A97ED0D7A77EE277AC7ED0D7ABB8DCA
:10C140000133BB85BA8D7B6A002B00DA01335B10AB
:10C150009A42A9DB07F10C0307F110024FF40061CA
:10C160007868FCF763FDD7ED0F7A77EEA77AB7EE24
:10C17000E77AB0EE470B0FF003FFB0EE405B3B6891
:10C1800007EE903AB8EEE76B85EE067BF7EEC77BDD
:10C19000C7ED0A7A244ABB6A9362D7ED0E7A77EE2E
:10C1A000A77AB7EEE77AB0EE470B0FF0E9FEB0EEF4
:10C1B000405B3B6807EE903AB8EEE76B85EE067B96
:10C1C000F7EEC77B184BC3ED0B7AD7ED0D7A77EE00
:10C1D000A77AB7EEE77AB0EE470B0FF0D1FEB0EEDC
:10C1E000407B9FED0D6B27EE065B3B6807EE903AB8
:10C1F000B8EEE76B85EE067BF7EEC77B0A4BC3ED27
:10C200000C7A00BF4037BD4680BD00BFAFF3008051
:10C210004AD8124DFB2119400000000000408F4019
:10C2200000606A46003C1946849D052080B52DEDCE
:10C23000028B8AB000AFF860B9601346FB804FF004
:10C2400000037B624FF000033B624FF00003FB6191
:10C250004FF000037B614FF000033B6100237B83C1
:10C260003EE07B8B9B00FA68134493ED007A7B8B56
:10C270009B00BA681344D3ED007A67EE277A97EDF6
:10C28000077A77EE277AC7ED077A7B8B9B00FA68EF
:10C29000134493ED007A7B8B9B00FA681344D3ED33
:10C2A000007A67EE277A97ED097A77EE277AC7ED5D
:10C2B000097A7B8B9B00BA68134493ED007A7B8BE1
:10C2C0009B00BA681344D3ED007A67EE277A97EDA6
:10C2D000087A77EE277AC7ED087A7B8B01337B8368
:10C2E0007A8BFB889A42BCD3D7ED097AB7EEE77A0E
:10C2F000B0EE470B0FF044FEB0EE408BD7ED087A5E
:10C30000B7EEE77AB0EE470B0FF03AFEB0EE407BA7
:10C3100028EE077BF7EEC77BC7ED057AD7ED076AF6
:10C3200097ED057AC6EE877AC7ED047A3B6907EE8A
:10C33000903AB0EE670A2837BD46BDEC028B80BD4F
:10C3400080B483B000AF0346FB710E4B1B680D4AEF
:10C3500023F004031360FB79DB08DAB20A4B1A708E
:10C36000094B1B789BB21A465201D21A9200134411
:10C37000DB009AB2054B1A8000BF0C37BD465DF852
:10C38000047B704710E000E01C0200201E02002029
:10C3900080B485B000AF0346FB80FB88144A128846
:10C3A0001146144A01FB03F35360124B00229A60BA
:10C3B000104B1B680F4A43F0010313600D4B1B68C1
:10C3C000FB60FB6803F00103002B04D0FB6803F45F
:10C3D0008033002BF2D0074B00221A60054B00225D
:10C3E0009A6000BF1437BD465DF8047B704700BFFC
:10C3F0001E02002010E000E080B485B000AF78603D
:10C40000144B1B781946144A7B6803FB01F35360F5
:10C41000114B00229A60104B1B680F4A43F0010336
:10C4200013600D4B1B68FB60FB6803F00103002BDE
:10C4300004D0FB6803F48033002BF2D0064B0022BB
:10C440001A60054B00229A6000BF1437BD465DF8A4
:10C45000047B70471C02002010E000E080B400AFB5
:10C46000034B1E221A6000BFBD465DF8047B704777
:10C47000949E052080B483B000AF7860094B1B68A0
:10C480007A6802FB03F30A3B7B6000BF7B685A1E9D
:10C490007A60002BFAD100BF00BF0C37BD465DF8B3
:10C4A000047B7047949E052080B483B000AF786011
:10C4B0000B4B1B687A6802FB03F34FF47A7202FBA2
:10C4C00003F30A3B7B6000BF7B685A1E7A60002B37
:10C4D000FAD100BF00BF0C37BD465DF8047B704742
:10C4E000949E052080B5ADF5005D82B000AF234B72
:10C4F00042F208023A441344214A184611464FF4C6
:10C5000000531A460AF0CEFE4FF4006342F20402D2
:10C510003A441380002342F206023A4413801CE09E
:10C5200042F206033B441A8842F206033B44198850
:10C53000124B42F2080038440344920013441A6834
:10C5400010488B0003441A6042F206033B441B88E8
:10C55000013342F206023A44138042F206033B449E
:10C560001A8842F204033B441B889A42D8D300BF86
:10C5700000BF07F500570837BD4680BDFCDFFFFF51
:10C5800070C10108989E052080B485B000AFF860A6
:10C59000B9607A60FB68074A1A60BB68064A1A608D
:10C5A0007B6880221A6000BF1437BD465DF8047BAB
:10C5B000704700BF200200207402002080B584B0C4
:10C5C00004AF4FF47A7302934FF480730193054BD9
:10C5D000009302230022A121034803F035FF00BF8E
:10C5E000BD4680BD04C00520B8BF052080B500AFA2
:10C5F000054B00225A6001220449054806F0C2FD9D
:10C6000062B600BF00BF80BD8001062044840620C2
:10C61000C083062080B400AF074B4FF480521A60ED
:10C62000064B00221A60044B1B68044A536000BF8B
:10C63000BD465DF8047B704794040020285D05200A
:10C6400080B400AF0D4B4FF47A721A600B4B0A2284
:10C650005A600A4B4FF47A729A60084B0A22DA60E9
:10C66000064B41F288321A61044B4FF47A725A61D8
:10C6700000BFBD465DF8047B704700BF6C9D052080
:10C6800080B500AFD820FFF75BFEFFF7E7FE00BFE5
:10C6900080BD000080B582B000AFFE20FEF7D0FF65
:10C6A0000A20FFF775FE0120FFF7E4FEFFF7A2F86E
:10C6B0000020FFF71DF8E020FEF7E2FFFFF744F847
:10C6C00003461A461D4B1A704FF4FA70FFF760FECE
:10C6D0001B4B7B601B4B3B603B793A7811461846FD
:10C6E000FEF796FF0F20FFF787FEFC20FEF7A8FF5E
:10C6F0000A20FFF781FE0020FEF7A2FF0F20FFF7C0
:10C700007BFEFFF703F8002210210F4803F0C0FD65
:10C71000322301220D490E4805F0C9FC1920FFF70C
:10C7200037FE0C4A44F20803134401221A70012018
:10C73000FFF762FE00BF0837BD4680BD74040020CD
:10C740000002040601030507000002400400002067
:10C7500048840620285D0520B0B596B000AF02F0F1
:10C760005AFE00F081F800F00FFA00F0DFF900F057
:10C770006FF900F0ABF900F00DF900F04BF9012270
:10C780004021304803F084FDFFF730FFFFF742FF00
:10C79000FFF756FFFFF774FFFFF710FFFFF77AFF71
:10C7A000FFF7A0FE00233B6500237B6507F15003E4
:10C7B0000121184608F0DBF80346234A13600023E2
:10C7C000BB640023FB6407F148030121184608F00D
:10C7D000CEF803461D4A13601D4B07F138040FCBFA
:10C7E00084E80F0007F138030021184608F0F1F83B
:10C7F0000346184A1360184B07F11C041D460FCD61
:10C800000FC495E8070084E8070007F11C03002126
:10C81000184608F060F80346104A1360104B3C4677
:10C820001D460FCD0FC495E8070084E807003B467E
:10C830000021184608F04FF803460A4A136008F032
:10C8400043F8FEE7000402400CC1052074C5062031
:10C8500088E101087401062098E1010810C1052053
:10C86000B4E1010804C1052080B5B8B000AF07F1FC
:10C87000AC033422002118460AF022FD07F1980388
:10C8800000221A605A609A60DA601A6107F10803A0
:10C890009022002118460AF013FD3C4B1B6C3B4ACA
:10C8A00043F080531364394B1B6C03F080537B605F
:10C8B0007B68374B1B68364A43F440431360344B64
:10C8C0001B6803F440433B603B680A23C7F8AC3065
:10C8D0000123C7F8B8301023C7F8BC300123C7F8CC
:10C8E000C0300223C7F8C4300023C7F8C83008237B
:10C8F000C7F8CC30D823C7F8D0300223C7F8D430DB
:10C900000223C7F8D83007F1AC03184604F04EFAFA
:10C910000346002B01D000F0EBFE04F0F7F90346CC
:10C92000002B01D000F0E4FE0F23C7F8983002235B
:10C93000C7F89C300023C7F8A0304FF4A053C7F8C5
:10C94000A4304FF48053C7F8A83007F198030721AB
:10C95000184604F0D9FC0346002B01D000F0C8FEB5
:10C960004FF40843BB6000233B6600233B6707F19D
:10C970000803184604F0C8FE0346002B01D000F05F
:10C98000B7FE00BFE037BD4680BD00BF00380240A3
:10C990000070004080B500AF1B4B1C4A1A601A4B58
:10C9A0001B4A5A60184B08229A60174B0122DA6022
:10C9B000154B00221A61144B00225A61124B0022BF
:10C9C0009A61114B4FF40022DA610F4B00221A6278
:10C9D0000D4803F0A9FC0346002B01D000F088FEAF
:10C9E0000021094804F09CF80346002B01D000F018
:10C9F0007FFE0021044804F0DEF80346002B01D03E
:10CA000000F076FE00BF80BDB8BF05200058004092
:10CA10006847402080B500AF0B4B0C4A1A600A4BA8
:10CA200005225A60084B40F6FF72DA60064B40F66A
:10CA300018429A60044804F00AF90346002B01D01A
:10CA400000F056FE00BF80BDA8BF052000300040AA
:10CA500080B500AF1B4B1C4A1A601A4B4FF4827210
:10CA60005A60184B00229A60164B4FF4E062DA606D
:10CA7000144B00221A61134B01225A61114B4FF4DF
:10CA800000729A610F4B2822DA610E4B00221A6263
:10CA90000C4B00225A620B4B00229A62094B072270
:10CAA000DA62084B00221A63064B00225A630548DB
:10CAB00005F052FA0346002B01D000F019FE00BF2A
:10CAC00080BD00BF488406200030014080B500AF23
:10CAD000144B154A1A60134B4FF4E1325A60114B54
:10CAE00000229A600F4B0022DA600E4B00221A617E
:10CAF0000C4B0C225A610B4B00229A61094B00220D
:10CB0000DA61084B00221A62064B00225A6205487D
:10CB100006F0EAFA0346002B01D000F0E9FD00BF61
:10CB200080BD00BFC08306200014014080B582B0E4
:10CB300000AF144B1B6B134A43F480031363114B78
:10CB40001B6B03F480037B607B6800220521382087
:10CB500002F099FD382002F0B2FD002205213B20B1
:10CB600002F091FD3B2002F0AAFD002205214520A4
:10CB700002F089FD452002F0A2FD00BF0837BD4646
:10CB800080BD00BF0038024080B58AB000AF07F119
:10CB9000140300221A605A609A60DA601A61424BEC
:10CBA0001B6B414A43F0010313633F4B1B6B03F0C4
:10CBB00001033B613B693C4B1B6B3B4A43F0020367
:10CBC0001363394B1B6B03F00203FB60FB68364BAE
:10CBD0001B6B354A43F008031363334B1B6B03F0A5
:10CBE0000803BB60BB68304B1B6B2F4A43F0040348
:10CBF00013632D4B1B6B03F004037B607B680022E7
:10CC000010212A4803F044FB00224FF440512848E9
:10CC100003F03EFB00224021264803F039FB0823A5
:10CC20007B614FF40413BB610023FB6107F1140324
:10CC300019461E4803F068F910237B610123BB618C
:10CC40000123FB6103233B6207F1140319461748D4
:10CC500003F05AF94FF440537B610123BB61002379
:10CC6000FB6100233B6207F114031946104803F0EF
:10CC70004BF940237B610123BB610023FB6100234F
:10CC80003B6207F1140319460A4803F03DF90022FC
:10CC90000521092002F0F7FC092002F010FD00BF79
:10CCA0002837BD4680BD00BF00380240000002406A
:10CCB000000C02400004024080B584B000AF03467F
:10CCC000FB80FB88082B40F08480444B1B78032BAF
:10CCD0007FD1434A44F2080313441B78012B78D1D7
:10CCE000404B1B78002B74D13F4B1B78002B70D12D
:10CCF00003233E4A3E493F4805F05AFD3B4B1B7813
:10CD00001B0403F47F033C4A1360384B5B781A0220
:10CD1000394B1B681343384A1360344B9B781A46CF
:10CD2000354B1B681343344A1360334B1B6803F4C1
:10CD30000003002B06D0304B1B6843F07F431A469C
:10CD40002D4B1A602C4B1B6807EE903AF8EEE77AF1
:10CD50002A4BC3ED007A294B93ED007ADFED286A68
:10CD6000C7EE267A254BC3ED007A1D4B1B68234A7C
:10CD700012681B4902339B000B441A60184B1B6856
:10CD80000133174A1360164B1A68154B5B689A42B9
:10CD90001FD10023FB601B4B1B6807F10C021146DF
:10CDA000184608F047F9FB68012B0AD1FB68002BF5
:10CDB00007D0154B4FF080521A60BFF34F8FBFF36F
:10CDC0006F8F074B00221A604FF400510F4803F099
:10CDD00078FA00BF1037BD4680BD00BF7404002044
:10CDE000285D0520AC8406209C04002080040020DF
:10CDF00000000020488406207804002078010620E6
:10CE0000C8CCCC490CC1052004ED00E0000C024068
:10CE100080B584B000AF7860274B5B685A1C264908
:10CE20004A60264A1178244A13440A4683F8A0210E
:10CE3000224B1B780A2B20D11F4B00225A6007225D
:10CE40001F492048FEF7FAFD0346FB73FB7B002BCE
:10CE50000AD0194B01225A70174B00221A701A4936
:10CE60007868FEF705FD08E01648FBF749FA034627
:10CE70001A46002113480AF023FA0F4B5B680E2B69
:10CE80000BDD0D4B00225A600E48FBF739FA0346C2
:10CE90001A4600210B480AF013FA00BF0122074985
:10CEA000786806F06FF90346002BF7D000BF00BF8B
:10CEB0001037BD4680BD00BF800106204484062097
:10CEC000D0E1010820030620849D052080B584B0B0
:10CED00000AF78604FF4FA73FB60134B1B68F9687E
:10CEE000184608F023FA0346012BF6D10F4B1B78A6
:10CEF000002BF2D10E4B1868002300220D4907F0D9
:10CF000093FFB8600A4B1B68184608F023FB0346E2
:10CF1000094A1360BB68012BDFD1084B1B68184618
:10CF200008F0C4FED9E700BF0CC10520AC84062080
:10CF30007401062014000020A4BF052004C10520B0
:10CF400080B58EB000AF7860424B1B68184608F081
:10CF500001FB0346404A13603F4B1B68002B00F067
:10CF6000B7833C4B1B6864223C49184608F0F8F82C
:10CF7000F862384B1B68184608F0ECFA0346364A4C
:10CF80001360374803F0B2FE4FF4804009F07AFF97
:10CF9000B862344B01221A7000237B6322E02F4BCE
:10CFA0001A687B6B9B001A447B6B9B00B96A0B442D
:10CFB00012681A60294B1A687B6B9B001A447B6BC2
:10CFC0005B00126828499B000B441A607B6B5B0076
:10CFD0000133254A9B0013444FF000021A607B6B1B
:10CFE00001337B63214B1B687A6B9A42D7D3FB6A70
:10CFF000012BA9D11E4B1B68DAB21E4B1B68DBB29A
:10D0000019491D48FDF743FA1C4B1B681A461C4979
:10D010001548FBF75FFD4FF40063FB84FB8C1A4659
:10D0200017491848FFF702F9F0EE407A164BC3EDA6
:10D03000367A00BF154B164A4FF400611048FBF7D3
:10D04000F5FD124B1B68002B24D1104B1B680133DC
:10D0500022E000BF74010620A4BF05201085062031
:10D06000A8BF05209C040020C003062094040020D3
:10D070008404002010000020788102080C000020A9
:10D0800014C10520989E0520849D05208804002059
:10D0900008C105209E4B1B689D4A13609D4B1B6871
:10D0A00007EE903AF8EE676A9B4B1B6807EE903AE2
:10D0B000B8EE677AC6EE877AC7ED087A944B1B689C
:10D0C00007EE903AB8EE677B9FED8F6B27EE066B0D
:10D0D000D7ED087AB7EEE77A26EE077BF7EEC77B47
:10D0E000C7ED077A8D4BD3ED007A77EEA76A8C4BAC
:10D0F0001B6807EE903AB8EE677AC6EE877AC7EDFE
:10D10000067AD7ED067A9FED877A67EE877AB7EED3
:10D11000E75A7F4B1B6807EE903AB8EE677B9FEDAE
:10D120007A6B27EE066BD7ED087AB7EEE77A26EE34
:10D13000076B85EE067BF7EEC77BC7ED057AD7ED6B
:10D14000057AB7EEE75A724B1B6807EE903AB8EED5
:10D15000677B9FED6D6B27EE066BD7ED087AB7EE18
:10D16000E77A26EE076B85EE067BF7EEC77BC7ED09
:10D17000047AD7ED047A77EEA77AC7ED037A6A4B83
:10D180004FF000025A60684B4FF000029A60664B05
:10D190004FF00002DA60644B4FF000021A61624BFC
:10D1A0004FF000025A61604B4FF000029A615E4BF3
:10D1B0004FF00002DA615C4B4FF000021A625A4AEB
:10D1C00043F6E07313444FF000021A60564A43F6E8
:10D1D000E47313444FF000021A60534A43F6E873B5
:10D1E00013444FF000021A604F4A43F6EC731344A5
:10D1F0004FF000021A604C4A43F6F07313444FF0AC
:10D2000000021A60484A43F6F47313444FF00002D8
:10D210001A60454A43F6F87313444FF000021A604F
:10D22000414A43F6FC7313444FF000021A603C4B32
:10D2300019683E4B3E4AB86AFBF7F8FC384B196850
:10D240003C4B3D4AB86AFBF7F6FD354B1B683B4A41
:10D250001946B86AFCF720F8314B1B68384A194662
:10D26000B86AFBF7A0FE2E4B1B68364A1946B86A0F
:10D27000FBF772FD2A4B1B68334A1946B86AFBF765
:10D280002FFF2B4BD3ED006A294B93ED037AC6EEAB
:10D29000877A274BC3ED077A254B93ED007A244B11
:10D2A000D3ED017A77EE677A214BC3ED067A204BF6
:10D2B000D3ED067A9FED1B7A67EE876AD7ED077A82
:10D2C00027EEA77AC6EE877A194BC3ED0D7A144B79
:10D2D0001B681946B86AFEF7F5FCF0EE407A144B6D
:10D2E000C3ED087A0E4B1B681946B86AFEF79CFC22
:10D2F000F0EE407A0E4BC3ED097AB86A09F08CFE65
:10D3000000233B6333E000BF4AD8124DFB21194094
:10D3100088040020080000200C00002008C105201F
:10D3200094040020003C194614C105208C04002000
:10D33000849D052090040020889D05208C9D05205B
:10D34000909D0520949D0520989D05203B6BDB005A
:10D35000BD4A1344BD4A1360BC4B1B683A6B52B2C2
:10D360001946BB48FEF7D8FC3B6B01333B633B6B74
:10D37000022BEBD9B74B1B681946B548FEF7E8FD01
:10D38000B54B1B780133DAB2B34B1A70B24B1B7832
:10D39000012B3BD1B14B1B68B04AC2F8DC30AF4B1C
:10D3A0005B68AE4AC2F8E030AC4B9B69AB4AC2F84E
:10D3B000F430AA4B9B68A94AC2F8E430A74BDB685B
:10D3C000A64AC2F8E830A54B1B69A44AC2F8EC3063
:10D3D000A24B5B69A14AC2F8F030A04B9B6A9F4AFE
:10D3E000C2F804319D4BDB699C4AC2F8F8309B4B74
:10D3F000DB6A9A4AC2F80831984B1B6A974AC2F80E
:10D40000FC30964B5B6A954AC2F80031924B1B7810
:10D41000022B40F08480914B93ED377A8F4BD3ED04
:10D42000007A77EE277A8D4BC3ED377A8B4B93EDED
:10D43000387A8A4BD3ED017A77EE277A874BC3EDA2
:10D44000387A864B93ED3D7A844BD3ED067A77EEAE
:10D45000277A824BC3ED3D7A804B93ED397A7F4B2F
:10D46000D3ED027A77EE277A7C4BC3ED397A7B4B8A
:10D4700093ED3A7A794BD3ED037A77EE277A774BAF
:10D48000C3ED3A7A754B93ED3B7A744BD3ED047A46
:10D4900077EE277A714BC3ED3B7A704B93ED3C7A74
:10D4A0006E4BD3ED057A77EE277A6C4BC3ED3C7A61
:10D4B0006A4B93ED417A694BD3ED0A7A77EE277A7E
:10D4C000664BC3ED417A654B93ED3E7A634BD3EDEA
:10D4D000077A77EE277A614BC3ED3E7A5F4B93ED87
:10D4E000427A5E4BD3ED0B7A77EE277A5B4BC3ED36
:10D4F000427A5A4B93ED3F7A584BD3ED087A77EE48
:10D50000277A564BC3ED3F7A544B93ED407A534BF9
:10D51000D3ED097A77EE277A504BC3ED407A4E4B24
:10D520001B78032B40F0CB804C4B93ED377A4B4B61
:10D53000D3ED007A37EE277AF0EE086AC7EE267A46
:10D54000464BC3ED007A454B93ED387A434BD3ED10
:10D55000017A37EE277AF0EE086AC7EE267A3F4B5B
:10D56000C3ED017A3D4B93ED3D7A3C4BD3ED067A0A
:10D5700037EE277AF0EE086AC7EE267A374BC3ED0E
:10D58000067A364B93ED397A344BD3ED027A37EE87
:10D59000277AF0EE086AC7EE267A304BC3ED027A9E
:10D5A0002E4B93ED3A7A2D4BD3ED037A37EE277A53
:10D5B000F0EE086AC7EE267A284BC3ED037A274BB4
:10D5C00093ED3B7A254BD3ED047A37EE277AF0EED4
:10D5D000086AC7EE267A214BC3ED047A1F4B93ED00
:10D5E0003C7A1E4BD3ED057A37EE277AF0EE086AC7
:10D5F000C7EE267A194BC3ED057A184B93ED417AA5
:10D60000164BD3ED0A7A37EE277AF0EE086AC7EEAA
:10D61000267A124BC3ED0A7A104B93ED3E7A0F4BEC
:10D62000D3ED077A37EE277AF0EE086AC7EE267A4E
:10D630000A4BC3ED077A094B93ED427A074BD3EDC2
:10D640000B7A37EE277A0BE06C9D052098040020BA
:10D6500014C10520940400207C040020849D052032
:10D66000F0EE086AC7EE267A1B4BC3ED0B7A1A4B15
:10D6700093ED3F7A184BD3ED087A37EE277AF0EE28
:10D68000086AC7EE267A144BC3ED087A124B93ED65
:10D69000407A114BD3ED097A37EE277AF0EE086A1B
:10D6A000C7EE267A0C4BC3ED097A0C4B01221A7097
:10D6B0000B4B00221A7008490A48FEF7D9F84FF4BC
:10D6C0008051094802F0FDFD084B00221A703BE42E
:10D6D000002008F023FA37E4849D0520800106200D
:10D6E0007C040020C0830620000C02409C04002023
:10D6F00080B400AF00BFBD465DF8047B704780B4C6
:10D7000085B000AFB9607A603B600346FB737A680E
:10D710003B689A4204D2BA687B681344FA7B1A7059
:10D7200000BF1437BD465DF8047B704780B485B0F8
:10D7300000AFB9607A603B600346FB7300BF1437EB
:10D74000BD465DF8047B704780B485B000AF78605B
:10D7500039607B68FB6002E0FB680133FB60FB68BB
:10D760001B78002B04D03B685A1E3A60002BF3D183
:10D77000FA687B68D31A18461437BD465DF8047BF7
:10D78000704780B483B000AF0346FB71FB792F2B49
:10D7900004D9FB79392B01D8012300E0002303F0E1
:10D7A0000103DBB218460C37BD465DF8047B7047B9
:10D7B00080B584B000AF78600023FB600EE0FA68AB
:10D7C00013469B0013445B0018467B681B68591C7A
:10D7D0007A6811601B780344303BFB607B681B68F0
:10D7E0001B781846FFF7CDFF0346002BE7D1FB68F7
:10D7F00018461037BD4680BD90B587B000AFF860C1
:10D80000B9607A603B607B683B617B6B03F002032D
:10D81000002B25D17B6B03F00103002B20D1FB6A89
:10D820007B610AE07A68531C7B60FC683B68B968DE
:10D830002020A0477B6901337B617A693B6B9A4268
:10D84000F0D30DE0FB6A013BFB62BA6AFB6A13444A
:10D8500018787A68531C7B60FC683B68B968A047FD
:10D86000FB6A002BEED17B6B03F00203002B0ED082
:10D8700007E07A68531C7B60FC683B68B96820202D
:10D88000A0477A683B69D31A3A6B9A42F1D87B6811
:10D8900018461C37BD4690BD80B588B004AFF8600F
:10D8A000B9607A603B603B6B03F00203002B36D11A
:10D8B000FB6A002B18D03B6B03F00103002B13D045
:10D8C00097F82030002B04D13B6B03F00C03002BA6
:10D8D0000AD0FB6A013BFB6206E0FB695A1CFA6155
:10D8E000BA69134430221A70FA69BB6A9A420AD2A2
:10D8F000FB691F2BF1D906E0FB695A1CFA61BA6972
:10D90000134430221A703B6B03F00103002B06D046
:10D91000FA69FB6A9A4202D2FB691F2BECD93B6B76
:10D9200003F01003002B58D03B6B03F48063002BF3
:10D9300016D1FB69002B13D0FA69BB6A9A4203D057
:10D94000FA69FB6A9A420BD1FB69013BFB61FB69F7
:10D95000002B05D07B6A102B02D1FB69013BFB61D8
:10D960007B6A102B0FD13B6B03F02003002B0AD1F5
:10D97000FB691F2B07D8FB695A1CFA61BA6913446B
:10D9800078221A701FE07B6A102B0FD13B6B03F0DB
:10D990002003002B0AD0FB691F2B07D8FB695A1CF8
:10D9A000FA61BA69134458221A700CE07B6A022BA0
:10D9B00009D1FB691F2B06D8FB695A1CFA61BA69A9
:10D9C000134462221A70FB691F2B06D8FB695A1C8C
:10D9D000FA61BA69134430221A70FB691F2B24D8EC
:10D9E00097F82030002B07D0FB695A1CFA61BA69FE
:10D9F00013442D221A7018E03B6B03F00403002B34
:10DA000007D0FB695A1CFA61BA6913442B221A70B9
:10DA10000BE03B6B03F00803002B06D0FB695A1C9C
:10DA2000FA61BA69134420221A703B6B0393FB6AB4
:10DA30000293FB690193BB6900933B687A68B968FC
:10DA4000F868FFF7D9FE034618461037BD4680BD7B
:10DA500080B596B008AFF860B9607A603B6000238B
:10DA60007B633B6C002B03D17B6D23F010037B6544
:10DA70007B6D03F48063002B02D03B6C002B33D012
:10DA80003B6CBA6CB3FBF2F2B96C01FB02F29B1A6D
:10DA900087F8333097F83330092B04D897F83330B0
:10DAA0003033DAB20DE07B6D03F02003002B01D0A0
:10DAB000412200E0612297F833301344DBB20A3B85
:10DAC000DAB27B6B591C796307F138010B4403F818
:10DAD000282C3A6CBB6CB2FBF3F33B643B6C002B21
